:020000040800F2
:1000000000000220718F00086D9A0008A99A00086C
:10001000E19A0008199B0008519B000800000000AD
:10002000000000000000000000000000899B0008A4
:10003000C59B000800000000019C000899B300085F
:10004000BD8F0008BD8F0008BD8F0008BD8F000860
:10005000BD8F0008BD8F0008BD8F0008BD8F000850
:10006000BD8F0008BD8F0008BD8F0008BD8F000840
:10007000BD8F0008BD8F0008BD8F0008BD8F000830
:10008000BD8F0008BD8F0008BD8F0008BD8F000820
:10009000BD8F0008BD8F0008BD8F0008BD8F000810
:1000A000BD8F0008BD8F0008BD8F0008BD8F000800
:1000B000BD8F0008BD8F0008BD8F0008BD8F0008F0
:1000C000BD8F0008BD8F0008BD8F0008BD8F0008E0
:1000D000BD8F0008F9AD0008BD8F0008BD8F000876
:1000E000BD8F0008BD8F0008BD8F0008BD8F0008C0
:1000F000BD8F0008BD8F0008BD8F0008BD8F0008B0
:10010000BD8F0008BD8F0008BD8F0008BD8F00089F
:10011000BD8F0008BD8F0008BD8F0008BD8F00088F
:10012000BD8F0008BD8F0008BD8F0008BD8F00087F
:10013000BD8F0008BD8F0008BD8F0008BD8F00086F
:10014000BD8F0008BD8F0008BD8F00082D2300085B
:10015000BD8F0008BD8F0008BD8F0008BD8F00084F
:10016000BD8F0008BD8F0008BD8F0008BD8F00083F
:10017000ED220008E1220008BD8F0008BD8F0008B5
:04018000BD8F000827
:1001880081F0004102E000BF83F0004330B54FEA40
:1001980041044FEA430594EA050F08BF90EA020FAD
:1001A8001FBF54EA000C55EA020C7FEA645C7FEA40
:1001B800655C00F0E2804FEA5454D4EB5555B8BF63
:1001C8006D420CDD2C4480EA020281EA030382EAD4
:1001D800000083EA010180EA020281EA0303362D66
:1001E80088BF30BD11F0004F4FEA01314FF4801C39
:1001F8004CEA113102D0404261EB410113F0004F4B
:100208004FEA03334CEA133302D0524263EB430301
:1002180094EA050F00F0A780A4F10104D5F1200E9F
:100228000DDB02FA0EFC22FA05F2801841F10001FA
:1002380003FA0EF2801843FA05F359410EE0A5F1CE
:1002480020050EF1200E012A03FA0EFC28BF4CF0FF
:10025800020C43FA05F3C01851EBE37101F00045B5
:1002680007D54FF0000EDCF1000C7EEB00006EEBC2
:100278000101B1F5801F1BD3B1F5001F0CD349084C
:100288005FEA30004FEA3C0C04F101044FEA4452A3
:1002980012F5800F80F09A80BCF1004F08BF5FEA2A
:1002A800500C50F1000041EB045141EA050130BD0A
:1002B8005FEA4C0C404141EB010111F4801FA4F1AD
:1002C8000104E9D191F0000F04BF01460020B1FA02
:1002D80081F308BF2033A3F10B03B3F120020CDA3A
:1002E8000C3208DD02F1140CC2F10C0201FA0CF018
:1002F80021FA02F10CE002F11402D8BFC2F1200C7D
:1003080001FA02F120FA0CFCDCBF41EA0C01904032
:10031800E41AA2BF01EB0451294330BD6FEA04047B
:100328001F3C1CDA0C340EDC04F11404C4F1200266
:1003380020FA04F001FA02F340EA030021FA04F378
:1003480045EA030130BDC4F10C04C4F1200220FACF
:1003580002F001FA04F340EA0300294630BD21FA0D
:1003680004F0294630BD94F0000F83F4801306BFD3
:1003780081F480110134013D4EE77FEA645C18BFC7
:100388007FEA655C29D094EA050F08BF90EA020F5E
:1003980005D054EA000C04BF1946104630BD91EA56
:1003A800030F1EBF0021002030BD5FEA545C05D159
:1003B8004000494128BF41F0004130BD14F5800498
:1003C8003CBF01F5801130BD01F0004545F0FE410C
:1003D80041F470014FF0000030BD7FEA645C1ABF41
:1003E800194610467FEA655C1CBF0B46024650EA78
:1003F800013406BF52EA033591EA030F41F40021A4
:1004080030BD00BF90F0000F04BF0021704730B529
:100418004FF4806404F132044FF000054FF00001FE
:1004280050E700BF90F0000F04BF0021704730B5BF
:100438004FF4806404F1320410F0004548BF404294
:100448004FF000013EE700BF42004FEAE2014FEAE9
:1004580031014FEA02701FBF12F07F4393F07F4FC4
:1004680081F06051704792F0000F14BF93F07F4FF6
:10047800704730B54FF4607401F0004521F0004139
:1004880020E700BF50EA010208BF704730B54FF0BF
:1004980000050AE050EA010208BF704730B511F0C4
:1004A800004502D5404261EB41014FF4806404F1FC
:1004B80032045FEA915C3FF4DCAE4FF003025FEA7E
:1004C800DC0C18BF03325FEADC0C18BF033202EB06
:1004D800DC02C2F1200300FA03FC20FA02F001FA60
:1004E80003FE40EA0E0021FA02F11444C1E600BFFF
:1004F80070B54FF0FF0C4CF4E06C1CEA11541DBFB2
:100508001CEA135594EA0C0F95EA0C0F00F0DEF87C
:100518002C4481EA030621EA4C5123EA4C5350EA61
:10052800013518BF52EA033541F4801143F48013B2
:1005380038D0A0FB02CE4FF00005E1FB02E506F043
:100548000042E0FB03E54FF00006E1FB03569CF098
:10055800000F18BF4EF0010EA4F1FF04B6F5007F9E
:1005680064F5407404D25FEA4E0E6D4146EB060610
:1005780042EAC62141EA55514FEAC52040EA5E5099
:100588004FEACE2EB4F1FD0C88BFBCF5E06F1ED843
:10059800BEF1004F08BF5FEA500E50F1000041EB7A
:1005A800045170BD06F0004646EA010140EA020027
:1005B80081EA0301B4EB5C04C2BFD4EB0C0541EA49
:1005C800045170BD41F480114FF0000E013C00F35E
:1005D800AB8014F1360FDEBF002001F0004170BD82
:1005E800C4F10004203C35DA0C341BDC04F114049B
:1005F800C4F1200500FA05F320FA04F001FA05F227
:1006080040EA020001F0004221F0004110EBD370F3
:1006180021FA04F642EB06015EEA430E08BF20EA1F
:10062800D37070BDC4F10C04C4F1200500FA04F3C2
:1006380020FA05F001FA04F240EA020001F0004154
:1006480010EBD37041F100015EEA430E08BF20EAC7
:10065800D37070BDC4F1200500FA05F24EEA020E0F
:1006680020FA04F301FA05F243EA020321FA04F03E
:1006780001F0004121FA04F220EA020000EBD370F5
:100688005EEA430E08BF20EAD37070BD94F0000FF5
:100698000FD101F00046400041EB010111F4801F29
:1006A80008BF013CF7D041EA060195F0000F18BFDA
:1006B800704703F00046520043EB030313F4801F16
:1006C80008BF013DF7D043EA0603704794EA0C0FD0
:1006D8000CEA135518BF95EA0C0F0CD050EA4106E6
:1006E80018BF52EA4306D1D181EA030101F0004163
:1006F8004FF0000070BD50EA410606BF104619468B
:1007080052EA430619D094EA0C0F02D150EA013696
:1007180013D195EA0C0F05D152EA03361CBF1046D7
:1007280019460AD181EA030101F0004141F0FE4176
:1007380041F470014FF0000070BD41F0FE4141F4FA
:10074800780170BD70B54FF0FF0C4CF4E06C1CEAFA
:1007580011541DBF1CEA135594EA0C0F95EA0C0FAF
:1007680000F0A7F8A4EB050481EA030E52EA03356A
:100778004FEA013100F088804FEA03334FF080558B
:1007880045EA131343EA12634FEA022245EA1115B8
:1007980045EA10654FEA00260EF000419D4208BF69
:1007A800964244F1FD0404F5407402D25B084FEA16
:1007B8003202B61A65EB03055B084FEA32024FF4C2
:1007C80080104FF4002CB6EB020E75EB030E22BF1F
:1007D800B61A754640EA0C005B084FEA3202B6EBDF
:1007E800020E75EB030E22BFB61A754640EA5C008E
:1007F8005B084FEA3202B6EB020E75EB030E22BF1E
:10080800B61A754640EA9C005B084FEA3202B6EB1E
:10081800020E75EB030E22BFB61A754640EADC00DD
:1008280055EA060E18D04FEA051545EA16754FEA3F
:1008380006164FEAC30343EA52734FEAC2025FEA5D
:100848001C1CC0D111F4801F0BD141EA00014FF0EC
:1008580000004FF0004CB6E711F4801F04BF0143BD
:100868000020B4F1FD0C88BFBCF5E06F3FF6AFAED9
:10087800B5EB030C04BFB6EB020C5FEA500C50F169
:10088800000041EB045170BD0EF0004E4EEA1131EC
:1008980014EB5C04C2BFD4EB0C0541EA045170BDF3
:1008A80041F480114FF0000E013C90E645EA060E37
:1008B8008DE60CEA135594EA0C0F08BF95EA0C0F65
:1008C8003FF43BAF94EA0C0F0AD150EA01347FF4AD
:1008D80034AF95EA0C0F7FF425AF104619462CE784
:1008E80095EA0C0F06D152EA03353FF4FDAE1046E7
:1008F800194622E750EA410618BF52EA43067FF438
:10090800C5AE50EA41047FF40DAF52EA43057FF4C7
:10091800EBAE12E74FF0FF3C06E000BF4FF0010CD2
:1009280002E000BF4FF0010C4DF804CD4FEA410C36
:100938007FEA6C5C4FEA430C18BF7FEA6C5C1BD003
:1009480001B050EA410C0CBF52EA430C91EA030F84
:1009580002BF90EA020F0020704710F1000F91EAE1
:10096800030F58BF994208BF90422CBFD8176FEAAF
:10097800E37040F0010070474FEA410C7FEA6C5C7D
:1009880002D150EA013C07D14FEA430C7FEA6C5C84
:10099800D6D152EA033CD3D05DF8040B704700BFB0
:1009A8008446104662468C461946634600E000BFFE
:1009B80001B5FFF7B7FF002848BF10F1000F01BDD0
:1009C8004DF808EDFFF7F4FF0CBF012000205DF89B
:1009D80008FB00BF4DF808EDFFF7EAFF34BF012020
:1009E80000205DF808FB00BF4DF808EDFFF7E0FFB9
:1009F80094BF012000205DF808FB00BF4DF808ED0A
:100A0800FFF7CEFF94BF012000205DF808FB00BF70
:100A18004DF808EDFFF7C4FF34BF012000205DF852
:100A280008FB00BF4FEA410212F5001215D211D59A
:100A38006FF47873B3EB625212D94FEAC12343F0D3
:100A4800004343EA505311F0004F23FA02F018BF55
:100A5800404270474FF00000704750EA013005D11E
:100A680011F0004008BF6FF0004070474FF00000E1
:100A7800704700BF4BB942B9002908BF002802D00F
:100A88004FF0FF31084600F03BB882B0EC462DE944
:100A9800005000F01DF8DDF804E002B00CBC70470F
:100AA8002DE9F0411646984604460D4600F02AF80E
:100AB80006FB01FCA6FB002300FB08C7FB18A21AD3
:100AC80065EB0303069CC4E90023BDE8F08100BF81
:100AD8002DE9F041904606460F461D4600F070F994
:100AE80000FB05F3A0FB084508FB0138069B4544BD
:100AF800341B67EB0505C3E90045BDE8F08100BF7D
:100B0800704700BF00292DE9F00F1D46C0F29D80F7
:100B18000024002DC0F2948080460F4694461E465D
:100B2800E3BB8A4255D9B2FA82F747B1C7F120052B
:100B380020FA05F601FA07F1BA40B8403143170C1C
:100B4800B1FBF7F61FFA82FC07FB16110CFB06F542
:100B5800030C43EA01439D4208D9711E9B1880F09B
:100B680013819D4240F21081023E9B18591BB1FB34
:100B7800F7F507FB15130CFB05FC80B240EA0341AF
:100B88008C4507D96B1E8A1880F00081944540F285
:100B9800FD80023D45EA0641002503E08B420CD961
:100BA800002529460A462B4614B1524263EB4303FB
:100BB80010461946BDE8F00F7047B3FA83F5002DCB
:100BC80040F087808B4201D38242EAD80025012178
:100BD800E8E712B90126B6FBF2F2B2FA82F6002E65
:100BE80039D18E1A130C1FFA82FC0125B6FBF3F7D4
:100BF80003FB17610CFB07F84FEA104949EA014665
:100C0800B04506D9791EB61802D2B04500F2D38095
:100C18000F46C8EB0606B6FBF3F103FB11630CFBAA
:100C280001FC80B240EA03439C4506D94E1E9A183F
:100C380002D2944500F2C280314641EA0741B1E749
:100C4800E443524263EB430366E7404261EB4101F0
:100C58004FF0FF345DE7B240C6F1200921FA09F7E9
:100C680020FA09F901FA06F1130CB7FBF3F81FFA99
:100C780082FC03FB18770CFB08F549EA01094FEAE7
:100C8800194141EA0747B040BD420AD9BF1808F1E7
:100C9800FF3680F08E80BD4240F28B80A8F10208BA
:100CA800BF18791BB1FBF3F503FB15170CFB05F611
:100CB8001FFA89F949EA07418E4206D96F1E891839
:100CC80071D28E426FD9023D89188E1B45EA0845BC
:100CD8008CE7C5F1200122FA01F306FA05F627FA96
:100CE80001F207FA05F720FA01F11E434FEA164907
:100CF800B2FBF9F81FFA86FA09FB18220AFB08FB6F
:100D08000F433B0C43EA024293450CFA05FC08D911
:100D1800921908F1FF314AD2934548D9A8F102083F
:100D28009219CBEB0203B3FBF9F109FB11320AFB71
:100D380001FABFB247EA02439A4506D94A1E9B19EF
:100D480033D29A4531D902399B1941EA08410F0C2F
:100D58001FFA8CF808FB07F68AB24FEA1C4C08FB0E
:100D680002F80CFB02620CFB07FC02EB18429642ED
:100D780088BF0CF5803CCAEB03030CEB124C6345AF
:100D88000ED305D000250DE70E46EFE61D4601E718
:100D980000FA05F01FFA88F808EB0245A842F1D2DC
:100DA80001390025FEE63D468FE71146CDE7884626
:100DB800B7E7B04675E7023FB6182AE702393CE7BD
:100DC8002DE9F007144605460E46002B3DD18A4210
:100DD80049D9B2FA82F747B1C7F1200120FA01F2E6
:100DE80006FA07F6BC40BD401643220CB6FBF2F0EB
:100DF800A1B202FB106601FB00F32F0C47EA06467E
:100E0800B34208D9471E361980F0FA80B34240F23F
:100E1800F78002383619F61AB6FBF2F302FB1362B2
:100E280001FB03F1ADB245EA0242914207D95E1EC9
:100E3800121980F0E780914240F2E480023B43EAD5
:100E480000400021BDE8F00770478B4243D8B3FA51
:100E580083F4002C42D18B4202D3824200F2E1801B
:100E680000210120EEE712B90127B7FBF2F4B4FA2A
:100E780084F2002A40F089800A1B230CA7B20121C2
:100E8800B2FBF3F603FB162207FB06F04FEA154CFC
:100E98004CEA0242904207D9121906F1FF3C02D2ED
:100EA800904200F2D0806646121AB2FBF3F003FBC0
:100EB800102307FB00F7ADB245EA03439F4207D969
:100EC800421E1B1980F0A0809F4240F29D8002388C
:100ED80040EA0640B6E700210846B3E7C4F1200619
:100EE80022FA06F703FA04F321FA06F501FA04F1E7
:100EF80020FA06F63B434FEA134CB5FBFCF71FFA02
:100F080083F80CFB175508FB07F946EA010A4FEA74
:100F18001A4141EA0545A94502FA04F204D97E1EA0
:100F2800ED18C0F081803746C9EB0501B1FBFCF62E
:100F38000CFB161508FB06F81FFA8AFA4AEA05415F
:100F4800884503D9751EC91874D32E4646EA074644
:100F5800370C1FFA82FC0CFB07F5120CB3B20CFB22
:100F680003FC02FB035302FB07F203EB1C439D4205
:100F780088BF02F58032C8EB010102EB13429142AF
:100F88004CD343D0304600215CE79440C2F12005A1
:100F980021FA05F620FA05F501FA02F1230CB6FB51
:100FA800F3FCA7B203FB1C6607FB0CF829430D0CE6
:100FB80045EA0646B04500FA02F508D936190CF19B
:100FC800FF303ED2B0453CD9ACF1020C3619C8EB23
:100FD8000602B2FBF3F003FB102607FB00F889B208
:100FE80041EA0642904506D9461E121927D2904575
:100FF80025D902381219C8EB020240EA0C413FE732
:10100800384608E733461AE7104661E700FA04F065
:101018001FFA8CFC0CEB03439842B3D2701E0021DC
:1010280010E7214620460DE7A9457FF67CAF023F31
:10103800ED1879E7884588D9023EC91886E7304611
:10104800D9E78446C3E7023E12192DE72DE9F3419B
:101058000120014608F0CEF903204FF4C0530024C4
:1010680002258DF805006946394800938DF804502B
:101078008DF806408DF8074007F09EFF34480B2195
:101088000A2208F0B1F80A2231480C2108F0ACF81D
:101098002846012108F0AEF90420012108F0AAF938
:1010A8004FF440474FF001082A4869462026009728
:1010B8008DF805508DF804808DF806408DF80740AE
:1010C80007F07AFF2448694600968DF805508DF898
:1010D80004808DF806408DF8074007F06DFF1D4825
:1010E800394608F049F831461B4808F045F81B49CD
:1010F8004FF496720A600C68002CFCD12021164827
:1011080008F002F8032002214FF440438DF805004F
:101118008DF804100F48694600938DF806408DF845
:10112800074007F049FF0E210C220A4808F05CF836
:101138000F210C22074808F057F801214FF0005002
:1011480008F058F98020012108F07AF9BDE8FC81FF
:10115800000002400004024000080240E4110020A0
:1011680013B50220012443238DF805008DF80600ED
:1011780001A88DF804308DF8074007F09FFE4D2137
:1011880001A88DF804108DF805408DF806408DF8FB
:10119800074007F093FE1CBD70477047782148430D
:1011A80082B0002307220193B0FBF2F0019B591C87
:1011B80081420191FAD902B070470000024B1860D1
:1011C8001A68002AFCD17047E411002082B000237D
:1011D8000193C0686FF0804142684FF0FF3242606F
:1011E800426941619DF807309DF8051043F080027F
:1011F80041F008038DF807208DF805308269019ABF
:10120800826102B07047000013B5002301930446C1
:1012180000930320FFF7C2FFE0680269009201997A
:10122800104A4B1C9342019319D800990029F0DA0F
:1012380000230193009A42F001010091009B01698B
:101248000361026900920199064A4B1C934201937B
:1012580002D80099CA07F4D40320FFF79FFF0020A3
:101268001CBD00BF400D030030B5C4786CB93232E4
:1012780000EB8200033385689B1022469A4204D013
:1012880051F8220001322860F8E7002030BD10B57F
:101298000332D0F8D0409210002393424FEA8300E3
:1012A80004D0206841F823000133F6E7081810BD80
:1012B800012270B5002340249142C37082700471EA
:1012C80043710BD104230822847102244370C17234
:1012D8000270C17104724FF0A0430CE059B90C239D
:1012E80003700223C17206248171037205211F4B0A
:1012F8004470C171427203F5006144780161C360B2
:1013080003F510610022A24208D200EB820501F524
:101318000076A9616E6501322031F4E703F588642F
:1013280003F58062C0F8CC400478426103F5A061FF
:101338000022A24206D200EB8205C5F890100132C5
:101348002031F6E703F580510022A24207D200EBD4
:101358008205C5F8D010013201F58051F5E703F593
:101368006063C0F80C31002070BD00BF000004406D
:101378001FB5037A002202920392012B0446C36828
:1013880037D1986B010C62F30001627A02908DF8F4
:101398000A1022B1C8B240F010018DF80A109A6BF9
:1013A800029A9A63D8680146C0F3074201906FF326
:1013B800861142F010008DF8041000F0BD016FF3A3
:1013C800C3018DF80610DA68019A2046DA60FFF743
:1013D8001BFFE378012B2DD19DF80C00E36800F08A
:1013E800C10141F02A028DF80C2003989A68986090
:1013F80020E0D968CAB2019142F040018DF804108A
:10140800DA68019ADA60FFF7FFFE9DF80A00617A50
:1014180040F02D038DF80A3029B19DF80A2042F0DA
:1014280010008DF80A00E36802999A6B14209963FA
:10143800FFF7C4FEE17801290BD1E3689A6802F04E
:10144800C10040F02A0103928DF80C109A68039AA3
:101458009A60002004B010BD82B0002201230192DE
:101468008DF80430C36801999868014398689960B9
:10147800104602B0704782B00022012301928DF815
:101488000430C3680199986820EA01019868996056
:10149800104602B07047000007B50023019300937F
:1014A800009A42F020030093009A61F38A12009296
:1014B800C068009B0169036101690091019A0649AE
:1014C800531C8B42019302D8009A9106F4D403204E
:1014D800FFF764FE00200EBD400D030007B5002392
:1014E80001930093009941F010020092C36800989C
:1014F8001969186119690091019A0649501C8842B6
:10150800019002D8009AD006F4D40320FFF746FED3
:1015180000200EBD400D030007B5C368DA68100E41
:10152800019200F0DF026FF3861201298DF807207F
:1015380003D1D2B242F0200004E029B99DF8071087
:1015480041F040008DF807000199DA683220D9602F
:10155800FFF734FE00200EBDC368586900F0010192
:1015680081F001007047C368586900F001007047B6
:10157800C3685A699869104070474369986800F0D1
:10158800010181F00100704713B500220192C36880
:10159800044699699A614FF0FF315A695961FFF71A
:1015A80015FEE07828B99DF8042042F010038DF864
:1015B80004309DF807109DF8042041F023009DF8A1
:1015C800061042F008038DF807008DF8043041F04A
:1015D8002000E3688DF806009969019A21EA020162
:1015E80041EA02009969986100201CBD436982B0F4
:1015F8001A68019261F301028DF8042001981A68B3
:10160800186002B07047D0F8CC3082B0186800F08B
:10161800F1016FF3451101908DF80410019802B0A3
:10162800704737B504460D46FFF7B6FD2046FFF76D
:10163800EAFF0190C0F3072000F01003D9B249B9BE
:10164800012D07D140F010028DF80520D4F8CC0008
:10165800019B03609DF8051001F01002D0B240B163
:101668003DB965F304118DF80510019BD4F8CC1031
:101678000B60C82003B0BDE83040FFF79FBD436949
:101688005869704713B50446FFF7BDFF0190C0F3D2
:10169800072040F001018DF80510D4F8CC20019BFB
:1016A8000A201360FFF78AFD9DF80500D4F8CC10D6
:1016B8006FF300008DF80500019A14200A60FFF707
:1016C8007DFD01201CBD30B5044685B0002501957F
:1016D8000295FFF762FDD4F80C3120461D60217A8F
:1016E80001290CBF29460121FFF780FF2046FFF79B
:1016F800C9FF6069026803926FF382028DF80C20BB
:10170800039B02680360E17A012915D1E068602330
:10171800426A80224262ADF80420ADF80630816A40
:101728000199E0228162ADF80820ADF80A30029BE9
:10173800D0F80021C0F80031E07AC0B9E3684FF46E
:1017480000715A6A4FF480725962ADF80410ADF80E
:1017580006200198996A4FF440719862ADF8081014
:10176800ADF80A20D3F80021029AC3F8002110210D
:101778002046FFF791FE2046FFF7B0FE00232078B1
:1017880083420DD203F1220104EB8102906800220A
:1017980081684FF0FF318160C1680133C260EEE7B4
:1017A80020460121FFF73DFF2046FFF7EDFE002010
:1017B80005B030BD30B5002385B001F12202029397
:1017C8000193039300EB8204A3684FF0FF359A68F6
:1017D8009D60C278012A05D19DF8044044F00405B3
:1017E8008DF804501B2202FB010494F88A58032D3B
:1017F80056D8DFE805F0023802239DF805509DF819
:10180800042045F0040442F099021B258DF80420B9
:1018180005FB01028DF8054092F8874804BB9DF846
:10182800045045F040048DF8044092F88928BAB372
:10183800E5B245F020048DF8044031E09DF804201D
:101848009DF8055042F099048DF804401B2445F09A
:10185800060204FB01058DF8052095F88728FAB1E2
:101868009DF8054018E09DF804509DF8054045F0A6
:1018780021021B258DF8042005FB010244F0020417
:101888008DF8054092F8875855B19DF80420E4B2C8
:1018980042F080058DF8045044F001028DF80520CF
:1018A800012404FA01F4019DDA68DD604269956952
:1018B8002C43956994619DF80B2042F002058DF840
:1018C8000B50C268029C95692C43956994611B2250
:1018D80002FB0100BDF80E2090F8851861F38C1208
:1018E800ADF80E2090F886189DF80D2061F3C60219
:1018F8008DF80D2090F8871861F3C7128DF80D2028
:1019080090F88828B2F1020CDCF100019DF80E2055
:1019180051EB0C0161F341028DF80E2090F88A28F2
:101928009DF80E10032A62F383018DF80E10B0F8AB
:101938008B08BDF80C1060F30A01ADF80C1005D146
:101948009DF80F2042F020008DF80F0003991A68C7
:101958000020196005B030BD70B51B22044602FB9B
:10196800010086B0002301930393D0F892680D46D6
:101978007EB1B0F88B18721E5618B6FBF1F39BB205
:10198800B3F5807F06D90902C0F892184FF4807326
:1019980000E001231B2000FB054292F8876826B16E
:1019A800B2F88B185943C2F892181B2000FB054166
:1019B800019AD1F8926866F31202100C63F3CC0016
:1019C8000192ADF8060091F88D38020A63F34612C9
:1019D80005F122008DF8072004EB80029368019836
:1019E8001A691861E278012A03D1D1F88E08596979
:1019F8005861196820460091FFF7BFFD9DF8033034
:101A080060F3451363F07F026FF3861205F122003D
:101A18008DF8032004EB80018B681A68009A1A601D
:101A2800E078002841D11B2101FB054292F8873854
:101A3800002B3AD1D2F89238002B36D092F88A0887
:101A4800032828D8DFE800F002120212E268D81C46
:101A5800D16AC0F38F00049189B281421BD29DF8EC
:101A68000C1041F020008DF80C000FE06169D81CC3
:101A78000A69C0F38F01029292B28A420BD29DF892
:101A88000F0040F004028DF80F20E2689069039976
:101A98000143906991611B2202FB05412046D1F860
:101AA8008E182A469BB2FFF7DFFB002006B070BDF8
:101AB800223100EB81018B6884B01A68110E019203
:101AC80041F0C001C2F307428DF8071012F00C0173
:101AD80001D0082903D1C168CA6A029202E04069AC
:101AE80002690092C2F3074028B99DF8072060F305
:101AF800C7128DF8072001991A680020196004B0F0
:101B0800704713B50022802301928DF80730BDF885
:101B18000630012464F3CC032231ADF8063000EB23
:101B2800810083681969019919611868010E00908C
:101B380061F07F0062F386108DF803001968009940
:101B4800104619601CBD036982B01A68019261F3DE
:101B580001028DF8042001981A68186002B07047D5
:101B680013B500220192C368044699699A616FF01F
:101B780080415A695961FFF729FBE07828B99DF837
:101B8800042042F010038DF804309DF805109DF8EC
:101B980006309DF8042041F038008DF8050042F029
:101BA800080143F03C00E3688DF806008DF8041046
:101BB8009969019A21EA020141EA0200996998614A
:101BC80000201CBD30B5002589B003950495D0F8D8
:101BD8000C3104461D6001690A68130A65F3C403E1
:101BE80002928DF809300A68029A0A60C17A0129BE
:101BF8002BD10321FFF7A7FFE0688023426A402228
:101C08004362ADF80E20ADF80C30816A0399C0220A
:101C18008162ADF81230ADF81020049BD0F8042191
:101C2800C0F80431BDF812204FF4A07165F30F021B
:101C3800ADF81010ADF81220049BD0F80811C0F8C8
:101C48000831D0F80C11C0F80C31E17A00293BD1E9
:101C5800227A2046012A18BF0121FFF774FFE068A5
:101C68004FF400738021426A4362ADF80E10ADF85C
:101C78000C30826A039A4FF420734FF4BA7182626F
:101C8800ADF81030ADF81210D0F80421049A4FF4D2
:101C98007D73C0F80421BDF81210ADF810306FF351
:101CA8000F01ADF81210049AD0F80811C0F80821F5
:101CB800D0F80C11C0F80C21D0F81011C0F8102180
:101CC800D0F81411C0F8142110212046FFF7E4FBC6
:101CD8002046FFF703FC20694FF0FF33026900221A
:101CE80002614169426181698361C169C261617848
:101CF8008A421BD2131D04EB830083681968080EFF
:101D080000F08001C8B228B10021482001918DF867
:101D1800070000E00190196801990020196019690D
:101D280018619968FF2199600132E0E70022607824
:101D380082421CD202F1140304EB83004368196841
:101D4800080E00F08001C8B228B100214820079190
:101D58008DF81F0000E007901968079900201960A6
:101D6800196918619968FF2199600132DFE7012339
:101D7800002205928DF8153023690599186920EA23
:101D88000100014318691961E078012819D1069208
:101D980003228DF81820BDF818009DF81A2040215C
:101DA80061F38A00ADF8180042F001008DF81A00BE
:101DB800BDF81A2061F34902ADF81A2006991A6B8A
:101DC80019632046FFF7CCFE002009B030BD0000A3
:101DD800036982B09968C1F34103591E02299ABF69
:101DE800024A505C032002B0704700BF9C380108CB
:101DF8001FB50024039403699A68019282699DF8CB
:101E080004001168C0F341000228029102D064F373
:101E18000A0102E0032060F30A01ADF80810116816
:101E2800029911609DF80D2042F001008DF80D0017
:101E38005968039A21EA020141EA02005968586088
:101E4800002004B010BD13B54C780023012C019379
:101E58000B7808D11A1D04FA03F300EB820292688A
:101E6800ADF8043009E003F1140200EB8204626863
:101E7800012404FA03F3ADF8063013680093C3F3A2
:101E8800072303F08003DBB213BB8C68BDF8003076
:101E980064F30A03ADF80030CC789DF8023064F39F
:101EA80083038DF80230C988BDF8023061F38913C5
:101EB800C3F30721ADF8023041F010039DF801107B
:101EC8008DF8033041F080038DF8013000991160DE
:101ED8000069019AC369C1691343C36100201CBD2D
:101EE80013B54C780023012C009301930B7808D18B
:101EF8001A1D04FA03F300EB82018A68ADF8043076
:101F080009E003F1140200EB82014A68012101FA99
:101F180003F3ADF806309DF801106FF3C7118DF883
:101F28000110009B13600069019AC16921EA02034C
:101F3800C169C36100201CBD30B54D7885B0012D45
:101F48000A460B786BD11C1D00EB84039B6819684B
:101F580001911C69516961F31204029429B9240C96
:101F680065F3CC04ADF80A4013E094680919013907
:101F7800B1FBF4F1BDF80A4061F3CC04ADF80A40B6
:101F8800D478012C05D19DF80B1064F346118DF817
:101F98000B10196902991961C378012B08D11378BC
:101FA8001C1D00EB84018B6811695C6959610DE0A7
:101FB800D17801290AD0536943B11178012505FA6E
:101FC80001F103695C6B21435C6B5963D378012B86
:101FD8000DD101698B689DF8071013F4807F0CBF41
:101FE80041F0200141F0100103938DF807109DF88E
:101FF800073043F084018DF807101378191D00EBA2
:1020080081039B68196801991960D378012B56D10F
:102018005369D1689BB21278FFF726F94FE0143361
:1020280000EB83014B681C6801941C690294556994
:1020380091684DB961F3120402940121240C61F3F3
:10204800CC04ADF80A4010E06D186C1EBDF80A50BB
:10205800B4FBF1F464F3CC05A405A40D6143ADF819
:102068000A50029C61F312040294196902991961D9
:10207800C378012B07D11478143400EB84014B6822
:1020880011695C695961D378012B0AD151799DF89E
:10209800073011B143F0200101E043F010018DF841
:1020A80007109DF8073043F084018DF80710127867
:1020B8000199143200EB820043681A681960002005
:1020C80005B030BD30B54D7885B0012D49D1836953
:1020D8001C6801941A6902924A699DF8084042B93D
:1020E80062F306049DF80A208DF8084065F3C402DF
:1020F8000EE08D68AA428ABF4D6162F3060465F35B
:1021080006049DF80A208DF80840012464F3C402EF
:102118008DF80A201A69029A1A61C278012A07D131
:102128000D782C1D00EB840292680C695569546186
:102138009DF8072042F084028DF807201A68019A5A
:102148001A60C378002B42D14A69002A3FD00A7826
:10215800012101FA02F20369586B596B02435A6371
:1021680035E00B78143300EB830253681C68019444
:102178001D6902954D699DF808408A6805B14A6154
:1021880062F306049DF80A208DF80840012464F3E0
:10219800C4028DF80A201A69029A1A61C378012BC1
:1021A80007D10C78143400EB840253680A695C691F
:1021B8005A619DF8073043F084028DF807200978AA
:1021C800143100EB810043681A68019A1A600020F4
:1021D80005B030BD4B7882B0012B097811D10B1DA9
:1021E80000EB830083681A68100E00F080010192EA
:1021F800CAB21AB140F040008DF807009DF80610E9
:1022080007E0143100EB810043681A680192C2F3B9
:10221800074141F020018DF80610019A00201A604C
:1022280002B070474B7882B0012B0A7804D104328F
:1022380000EB8200836803E0143200EB82004368FD
:102248001A68100C6FF3451001928DF80600C978D2
:102258008A1E012A05D89DF8070040F010018DF864
:102268000710019A00201A6002B0704703699A6942
:10227800D8691040000C7047143100EB81014B689D
:102288000269996850690840704703699869D96973
:10229800084080B2704782B000230093C021012219
:1022A80000238DF8031062F3C40318218DF802305F
:1022B8008DF80010436D1A69009A1A61C1780129D6
:1022C80008D100F2CB505A6958611A681A684FF061
:1022D80080221A6002B07047014804F0D7BE00BFE0
:1022E800E811002010B50D4A1378144603F01001C8
:1022F800C8B290B1D80704D5094840F67F0108F064
:10230800F1FD227802F00203D9B231B1044840F657
:102318007F01BDE8104008F0FBBB10BDCC0D0020CC
:102328009F380108014801F099BC00BFA21C002099
:1023380038B5D0F8E837044623F07F40C4F8E807FA
:10234800002303F5FD7204EB8205686820F07F42E4
:102358006A6003F20A2554F8250020F07F42E0184D
:10236800013344F8252000250F2B80F86758E8D161
:10237800082284F88B2884F88C582046FEF798FFAA
:102388002046FFF778F82046FEF7F2FF01212046A5
:10239800FFF7C2F82046FFF796F92046FFF75CF8EA
:1023A800284638BDD0F8CC3082B01868C0F3414018
:1023B80002B0704708B5FFF765F9002008BDD0F8EE
:1023C800E837D0F8EC27D1B20A0242EA1361D0F814
:1023D800EC37D0F8EC07C3F3072241EA0241C0F317
:1023E800074341EA036070474369986880B27047C1
:1023F800411891F87608704738B50023451885F8D4
:1024080076381B2505FB010282F8963882F8973842
:1024180082F8983882F899380446FFF79DFA38BD53
:1024280080B584B000AF78604FF00003FB6040F2E5
:102438000003C2F200031B681B68786898473B7B5F
:1024480043F008033B737B68DB68FA6859694FF00F
:1024580000010A435A614FF00103184607F11007BB
:10246800BD4680BD80B584B000AF78604FF00003F2
:10247800FB6040F20003C2F200031B689B687868A7
:102488009847FB7B43F02003FB737B68DB68FA68A3
:1024980059694FF000010A435A614FF00103184689
:1024A80007F11007BD4680BD80B586B000AF7860E3
:1024B8007B68DB68DB6ABB60FB7AC3F3C303DBB210
:1024C8001A46796813464FEA43039B184FEAC3023A
:1024D8009B18CB1803F68803D3F80A3003F10303DB
:1024E8004FEA9303FB82E8E03B894FEA8303BB8210
:1024F800B98AFB7AC3F3C303DBB21A46786813467A
:102508004FEA43039B184FEAC3029B18C31803F60C
:102518008803D3F80A30994227D9FB7AC3F3C30357
:10252800DBB21A46796813464FEA43039B184FEA11
:10253800C3029B18CB1803F68803D3F80A30BB8272
:102548004FF000033B613B7C43F020033B747B6806
:10255800DB687A68D26891693A696FEA02020A40D0
:1025680099694FF000010A439A61FB7AC3F3C303E8
:10257800DBB21A46796813464FEA43039B184FEAC1
:10258800C3029B18CB1803F68803D3F80A3003F16B
:1025980003034FEA9303FB82FB7AC3F3C303DBB263
:1025A8001A46796813464FEA43039B184FEAC30259
:1025B8009B18CB1803F68803D3F80610FB7AC3F3ED
:1025C800C303DBB21A46BB8A7868FEF74DFEFB7A76
:1025D800C3F3C303DBB21A46FB7AC3F3C303DBB20C
:1025E800194678680B464FEA43035B184FEAC30164
:1025F8005B18C31803F68803D3F80610BB8AC918FA
:10260800786813464FEA43039B184FEAC3029B18A6
:10261800C31803F68803C3F80610FB7AC3F3C30391
:10262800DBB21A46FB7AC3F3C303DBB219467868F8
:102638000B464FEA43035B184FEAC3015B18C31804
:1026480003F68803D3F80A10BB8AC91A78681346B8
:102658004FEA43039B184FEAC3029B18C31803F6BB
:102668008803C3F80A10FB7AC3F3C303DBB21A4624
:10267800FB7AC3F3C303DBB2194678680B464FEA0B
:1026880043035B184FEAC3015B18C31803F50963DA
:10269800D3F80610BB8AC918786813464FEA430373
:1026A8009B184FEAC3029B18C31803F50963C3F8C4
:1026B80006107B68DB68DB6ABB603B89FA8A9A4252
:1026C80014D2FB7AC3F3C303DBB21A467968134604
:1026D8004FEA43039B184FEAC3029B18CB1803F633
:1026E8008803D3F80A30002B7FF4FEAE4FF00103C5
:1026F800184607F11807BD4680BD00BF80B586B0F3
:1027080000AF78607B685B691B69FB60FB7BC3F388
:10271800C303DBB21A46796813464FEA43039B1892
:102728004FEAC3029B18CB1803F68803D3F80A3084
:1027380003F103034FEA9303FB82E8E0BB894FEA06
:102748008303BB82B98AFB7BC3F3C303DBB21A469C
:10275800786813464FEA43039B184FEAC3029B1855
:10276800C31803F68803D3F80A30994227D9FB7BAC
:10277800C3F3C303DBB21A46796813464FEA43032F
:102788009B184FEAC3029B18CB1803F68803D3F8AB
:102798000A30BB824FF000033B61FB7C43F004032B
:1027A800FB747B68DB687A68D26891693A696FEA7A
:1027B80002020A4099694FF000010A439A61FB7BC3
:1027C800C3F3C303DBB21A46796813464FEA4303DF
:1027D8009B184FEAC3029B18CB1803F68803D3F85B
:1027E8000A3003F103034FEA9303FB82FB7BC3F335
:1027F800C303DBB21A46796813464FEA43039B18B2
:102808004FEAC3029B18CB1803F68803D3F80610C7
:10281800FB7BC3F3C303DBB21A46BB8A7868FEF7B7
:1028280023FDFB7BC3F3C303DBB21A46FB7BC3F375
:10283800C303DBB2194678680B464FEA43035B18BB
:102848004FEAC3015B18C31803F68803D3F80610D0
:10285800BB8AC918786813464FEA43039B184FEAA6
:10286800C3029B18C31803F68803C3F80610FB7B42
:10287800C3F3C303DBB21A46FB7BC3F3C303DBB268
:10288800194678680B464FEA43035B184FEAC301C1
:102898005B18C31803F68803D3F80A10BB8AC91A51
:1028A800786813464FEA43039B184FEAC3029B1804
:1028B800C31803F68803C3F80A10FB7BC3F3C303EA
:1028C800DBB21A46FB7BC3F3C303DBB21946786855
:1028D8000B464FEA43035B184FEAC3015B18C31862
:1028E80003F50963D3F80610BB8AC918786813463C
:1028F8004FEA43039B184FEAC3029B18C31803F51A
:102908000963C3F806107B685B691B69FB60BB89B8
:10291800FA8A9A4214D2FB7BC3F3C303DBB21A468A
:10292800796813464FEA43039B184FEAC3029B1882
:10293800CB1803F68803D3F80A30002B7FF4FEAED9
:102948004FF00103184607F11807BD4680BD00BFC8
:1029580080B588B000AF78604FF00003FB614FF09E
:102968000003BB614FF00003FB604FF000037B6185
:102978004FF000033B617B68D3F8CC301B687B6168
:102988007B68D3F8CC301B683B613B7C6FF38203D8
:102998003B743B7C6FF341033B743B7C6FF3C30395
:1029A8003B743B7C6FF345133B743B7D03F00203A0
:1029B800DBB2002B0FD03B7C43F002033B7440F2A8
:1029C8000003C2F200031B685B6878689847BB691C
:1029D80043F00103BB613B7D03F00803DBB2002B2E
:1029E80062D03B7C43F008033B743B7D03F0040357
:1029F800DBB2002B58D040F20003C2F200031B6880
:102A08005B6878689847BB7D03F00603DBB2042B4C
:102A180005D0BB7D03F00603DBB2022B3FD17B68F8
:102A28005B691B68FB60BB7D03F00603DBB2042B0C
:102A38001CD17B685A6953684FF0000343F4BB53B9
:102A480043F0100353603B7B03F00303DBB2022B1C
:102A580029D07B681B7A022B04D178684FF00201D9
:102A6800FEF7C4FD4FF00103FB611CE07B685A6967
:102A780053684FF0000343F43B4343F08003536033
:102A88003B7B03F00303DBB2012B0CD078684FF0DB
:102A98000101FEF7ABFD4FF00103FB6103E04FF0CE
:102AA8000103FB6100E000BF3B7D03F02003DBB2C4
:102AB800002B07D03B7C43F020033B74BB6943F0F9
:102AC8000103BB61FB69002B02D07868FEF7DAFDD1
:102AD8007B68D3F8CC303A691A60BB69184607F1AD
:102AE8002007BD4680BD00BF80B59AB000AF7860B2
:102AF80039607A683B6803F122034FEA8303D318ED
:102B08009B687B667B6E9B683B667B6EDB68FB65C0
:102B18003A6EFB6D13403B667A683B6803F122030B
:102B28004FEA8303D3189B681B68BB6597F860302E
:102B380003F00403DBB2002B2ED04FF000037B65BB
:102B480097F8543043F0040387F854307A6D7B6E5D
:102B580099684FF000010A439A607A683B6803F16C
:102B680022034FEA8303D3189B68DB683B6597F819
:102B7800503043F0020387F850307A683B6803F11D
:102B880022034FEA8303D3189B683A6DD9684FF044
:102B980000010A43DA6009E397F8603003F0200384
:102BA800DBB2002B10D04FF00003FB6497F84C30D9
:102BB80043F0200387F84C30FA6C7B6E99684FF02D
:102BC80000010A439A60F1E297F8613003F00203CA
:102BD800DBB2002B34D07A683B6803F122034FEA5A
:102BE8008303D3189B68DB68BB6497F8483043F0CD
:102BF800020387F848307A683B6803F122034FEAFA
:102C08008303D3189B68BA6CD9684FF000010A4354
:102C1800DA603B68DBB278681946FEF749FF4FF087
:102C280000037B6497F8453043F0020387F845308A
:102C38007A6C7B6E99684FF000010A439A60B5E29E
:102C480097F8603003F00103DBB2002B47D07A68B5
:102C58003B6803F5FD734FEA8303D3185A6822F0E3
:102C68007F425A607A683B6803F122034FEA830384
:102C7800D3189B68DB683B6497F8403043F0020345
:102C880087F840307A683B6803F122034FEA8303F0
:102C9800D3189B683A6CD9684FF000010A43DA6090
:102CA8003B68DBB278681946FEF702FF4FF0000375
:102CB800FB6397F83C3043F0010387F83C30FA6B2C
:102CC8007B6E99684FF000010A439A607A683B6806
:102CD800D31803F506634FF00102DA7166E297F83C
:102CE800603003F00803DBB2002B3CD04FF0000348
:102CF800BB6397F8383043F0080387F83830BA6B6D
:102D08007B6E99684FF000010A439A607A683B68C5
:102D180003F122034FEA8303D3189B68DB687B63C4
:102D280097F8343043F0020387F834307A683B6808
:102D380003F122034FEA8303D3189B687A6BD9689F
:102D48004FF000010A43DA603B68DBB27868194645
:102D5800FEF7AEFE7A683B68D31803F506634FF0BA
:102D68000502DA7122E297F8603003F01003DBB253
:102D7800002B47D07A683B6803F5FD734FEA83035D
:102D8800D3185A6822F07F425A607A683B6803F188
:102D980022034FEA8303D3189B68DB683B6397F8E9
:102DA800303043F0020387F830307A683B6803F12B
:102DB80022034FEA8303D3189B683A6BD9684FF014
:102DC80000010A43DA603B68DBB278681946FEF70F
:102DD8006FFE4FF00003FB6297F82C3043F01003AE
:102DE80087F82C30FA6A7B6E99684FF000010A4325
:102DF8009A607A683B68D31803F506634FF00302BC
:102E0800DA71D3E197F8603023F07F03DBB2002B4F
:102E180055D07A683B6803F122034FEA8303D3183D
:102E28009B68DB68BB6297F8283043F0020387F899
:102E380028307A683B6803F122034FEA8303D318EA
:102E48009B68BA6AD9684FF000010A43DA603B68A8
:102E5800DBB278681946FEF72BFE7A683B6803F503
:102E6800FD734FEA8303D318D3F8073003F1010247
:102E780079683B6803F5FD734FEA8303CB184FEA83
:102E88000262596821F07F410A435A607A683B68B8
:102E9800D31803F506634FF00602DA714FF000030A
:102EA8007B6297F8243043F0800387F824307A6AED
:102EB8007B6E99684FF000010A439A6076E197F8B3
:102EC800603003F04003DBB2002B45D07A683B68E2
:102ED80003F5FD734FEA8303D3185A6822F07F4243
:102EE8005A607A683B6803F122034FEA8303D318D8
:102EF8009B68DB683B6297F8203043F0020387F851
:102F080020307A683B6803F122034FEA8303D31821
:102F18009B683A6AD9684FF000010A43DA603B6857
:102F2800DBB278681946FEF7C3FD4FF00003FB617A
:102F38003B7F43F040033B77FA697B6E99684FF01B
:102F480000010A439A607A683B68D31803F5066360
:102F58004FF00402DA7129E197F8613003F00403B5
:102F6800DBB2002B46D07A683B6803F122034FEAB4
:102F78008303D3189B68DB68BB613B7E43F0020385
:102F88003B767A683B6803F122034FEA8303D31840
:102F98009B68BA69D9684FF000010A43DA603B6858
:102FA800DBB278681946FEF783FD4FF000037B61BA
:102FB8003B7D43F010033B757A697B6E99684FF04F
:102FC80000010A439A607A683B68D31803F50663E0
:102FD8004FF00802DA714FF000033B617B7C43F04D
:102FE80004037B743A697B6E99684FF000010A43C9
:102FF8009A60DBE097F8603003F00203DBB2002B45
:1030080000F0D4807A683B6803F122034FEA830317
:10301800D3189B68DB68FB603B7B6FF341033B7312
:103028007A683B6803F122034FEA8303D3189B684D
:10303800FA68D9684FF000010A43DA607A683B6899
:10304800D31803F50663DB79DBB2012B2ED17A683E
:103058003B68D31803F507634FF001029A7197F89C
:103068005A3003F00C03DBB2082B40F091807968EA
:103078003A6813464FEA43039B184FEAC3029B186A
:10308800CB1803F69B031B7883F00103D9B2786849
:103098003A6813464FEA43039B184FEAC3029B184A
:1030A800C31803F69B030A461A7071E07A683B68F6
:1030B800D31803F50663DB79DBB2032B08D17A68F2
:1030C8003B68D31803F507634FF002029A715FE07B
:1030D8007A683B68D31803F50663DB79DBB2042B07
:1030E8001DD179683A6813464FEA43039B184FEAA3
:1030F800C3029B18CB1803F689031B78012B05D153
:103108003B68DBB278681946FEF7FBFC7A683B68D7
:10311800D31803F507634FF002029A7138E07A6812
:103128003B68D31803F50663DB79DBB2052B08D1BE
:103138007A683B68D31803F507634FF004029A7165
:1031480026E07A683B68D31803F50663DB79DBB2BF
:10315800062B1DD17A683B6803F5FD734FEA83039C
:10316800D318D3F80730032B12D17A683B68D318E9
:1031780003F507634FF003029A717A683B6803F519
:10318800FD734FEA8303D3185A6822F07F425A60CE
:103198004FF00003BB603B7A43F002033B72BA680E
:1031A8007B6E99684FF000010A439A604FF0010363
:1031B800184607F16807BD4680BD00BF80B59CB0C2
:1031C80000AF786039607A683B6803F122034FEA00
:1031D8008303D3189B68FB66FB6E9B68BB66FB6E1C
:1031E800DB687B66BA6E7B6E1340BB667A683B68A9
:1031F80003F122034FEA8303D3189B681B683B66DD
:103208004FF000037B6697F8683003F00403DBB2E5
:10321800002B2ED04FF00003BB6597F8583043F0D1
:10322800040387F85830BA6DFB6E99684FF00001B7
:103238000A439A607A683B6803F122034FEA8303E2
:10324800D3189B68DB687B6597F8543043F002031A
:1032580087F854307A683B6803F122034FEA830306
:10326800D3189B687A6DD9684FF000010A43DA6079
:10327800C4E097F8683003F02003DBB2002B10D0CD
:103288004FF000033B6597F8503043F0200387F870
:1032980050303A6DFB6E99684FF000010A439A600E
:1032A800ACE097F8683003F00803DBB2002B52D08B
:1032B8007A683B6803F122034FEA8303D3189B68BB
:1032C800DB68FB6497F84C3043F0020387F84C3016
:1032D8007A683B6803F122034FEA8303D3189B689B
:1032E800FA6CD9684FF000010A43DA607A683B68E3
:1032F800D31803F506634FF00502DA714FF00003A7
:10330800BB6497F8483043F0100387F84830BA6C2C
:10331800FB6E99684FF000010A439A604FF0000372
:103328007B6497F8443043F0080387F844307A6C9C
:10333800FB6E99684FF000010A439A6097F868306D
:103348006FF3041387F868303B68DBB27868194676
:10335800FEF7AEFB52E097F8693003F00403DBB2E6
:10336800002B4BD07A683B6803F122034FEA8303B2
:10337800D3189B68DB683B6497F8403043F002033E
:1033880087F840307A683B6803F122034FEA8303E9
:10339800D3189B683A6CD9684FF000010A43DA6089
:1033A8003B68DBB278681946FEF782FB4FF00003F2
:1033B800FB6397F83C3043F0100387F83C30FA6B16
:1033C800FB6E99684FF000010A439A607A683B687F
:1033D800D31803F506634FF00802DA714FF00003C3
:1033E800BB6397F8393043F0040387F83930BA6B78
:1033F800FB6E99684FF000010A439A6097F86930AC
:1034080003F00203DBB2002B34D07A683B6803F187
:1034180022034FEA8303D3189B68DB687B6397F822
:10342800343043F0020387F834307A683B6803F19C
:1034380022034FEA8303D3189B687A6BD9684FF04D
:1034480000010A43DA603B68DBB278681946FEF788
:103458002FFB4FF000033B6397F8313043F0020332
:1034680087F831303A6BFB6E99684FF000010A43D8
:103478009A604BE297F8683003F00103DBB2002B47
:1034880000F0D6807B68DB78012B28D17A683B680E
:1034980003F122034FEA8303D3189B681B69FB657A
:1034A80079683A6813464FEA43039B184FEAC30208
:1034B8009B18CB1803F68803D3F80A20FB6DC3F3D7
:1034C8001203D11A7B683A6802F20A224FEA0161B4
:1034D80053F8220020F07F40014343F822107A6815
:1034E8003B68D31803F506634FF00102DA717A6876
:1034F8003B6803F5FD734FEA8303D3185A6822F03B
:103508007F425A604FF00003FB6297F82C3043F07B
:10351800010387F82C30FA6AFB6E99684FF00001B6
:103528000A439A6097F8623003F00C03DBB2002B71
:1035380006D097F8623003F00C03DBB2082B52D1A7
:103548007A683B6803F122034FEA8303D3189B6828
:10355800DB68BB6297F8283043F0020387F828300D
:103568007A683B6803F122034FEA8303D3189B6808
:10357800BA6AD9684FF000010A43DA603B68DBB2E7
:1035880078681946FEF794FA4FF000037B6297F8C3
:10359800243043F0100387F824307A6AFB6E996868
:1035A8004FF000010A439A6079683A6813464FEA77
:1035B80043039B184FEAC3029B18CB1803F69A03E0
:1035C8001B7883F00103D9B278683A6813464FEA4A
:1035D80043039B184FEAC3029B18C31803F69A03C8
:1035E8000A461A7092E197F8623003F00C03DBB2D6
:1035F8000C2B40F08A8197F8633043F0200387F85A
:1036080063307A683B6803F122034FEA8303D318D7
:103618009B683A6E19684FF000010A431A607A688D
:103628003B68D31803F507634FF001029A716CE108
:1036380097F8683003F00203DBB2002B00F09C809F
:103648007A683B6803F122034FEA8303D3189B6827
:10365800DB683B6297F820306FF3410387F820302E
:103668007A683B6803F122034FEA8303D3189B6807
:103678003A6AD9684FF000010A43DA607A683B6811
:10368800D31803F50663DB79DBB2012B08D17A681E
:103698003B68D31803F507634FF001029A715CE0A9
:1036A8007A683B68D31803F50663DB79DBB2052B30
:1036B80008D17A683B68D31803F507634FF0040212
:1036C8009A714AE07A683B68D31803F50663DB7998
:1036D800DBB2062B08D07A683B68D31803F506637B
:1036E800DB79DBB2082B13D17A683B6803F5FD73ED
:1036F8004FEA8303D3185A6822F07F425A607A68E7
:103708003B68D31803F507634FF003029A7124E06E
:1037180097F8623003F00C03DBB20C2B1DD17968EB
:103728003A6813464FEA43039B184FEAC3029B18B3
:10373800CB1803F69A031B7883F00103D9B2786893
:103748003A6813464FEA43039B184FEAC3029B1893
:10375800C31803F69A030A461A704FF00003FB6178
:103768003B7F43F002033B77FA69FB6E99684FF0A1
:1037780000010A439A60C9E097F8683023F07F0394
:10378800DBB2002B51D07A683B6803F122034FEA81
:103798008303D3189B68DB68BB613B7E43F002035D
:1037A8003B767A683B6803F122034FEA8303D31818
:1037B8009B68BA69D9684FF000010A43DA607A68F1
:1037C8003B6803F5FD734FEA8303D318D3F807303A
:1037D80003F1010279683B6803F5FD734FEA83033F
:1037E800CB184FEA0262596821F07F410A435A60B8
:1037F8007A683B68D31803F506634FF00602DA715E
:103808003B68DBB278681946FEF752F94FF00003BF
:103818007B613B7D43F080033B757A69FB6E996859
:103828004FF000010A439A6070E097F8683003F09F
:103838001003DBB2002B69D097F8623003F00C0359
:10384800DBB20C2B22D17A683B6803F122034FEAE2
:103858008303D3189B68DB683B613B7C43F002031E
:103868003B747A683B6803F122034FEA8303D31859
:103878009B683A69D9684FF000010A43DA603B68EF
:10388800DBB278681946FEF713F927E097F862303B
:1038980003F00C03DBB2002B06D097F8623003F07C
:1038A8000C03DBB2082B19D197F8633043F080037F
:1038B80087F8633097F863306FF3861387F86330BF
:1038C8007A683B6803F122034FEA8303D3189B68A5
:1038D8003A6E19684FF000010A431A607A683B682B
:1038E800D31803F506634FF00302DA714FF00003B3
:1038F800FB603B7B43F010033B73FA68FB6E9968EF
:103908004FF000010A439A6000E000BF4FF0010346
:10391800184607F17007BD4680BD00BF80B586B068
:1039280000AF78604FF000037B614FF000033B610C
:103938007868FDF7A4FE0346FB604FF000037B6147
:103948002DE0BB891A467B6942FA03F303F00103B1
:10395800002B20D07A687B6903F122034FEA8303A6
:10396800D3189B681B68BB607B7A23F07F03DBB2AC
:10397800002B08D078687969FFF720FC03463A697C
:1039880013433B6107E078687969FFF7ADF80346B0
:103998003A6913433B617B6903F101037B617B68EF
:1039A8001B781A467B699A42CBD83B69184607F1BF
:1039B8001807BD4680BD00BF80B588B000AF7860ED
:1039C8004FF00003FB724FF000037B613B7D43F037
:1039D80010033B757B68DB687A68D26891697A69FD
:1039E8006FEA02020A4099694FF000010A439A619E
:1039F8007B68DB681B6ABB613B7EC3F30303DBB2F6
:103A0800FB72FB7ADBB27A6803F122034FEA830385
:103A1800D3189B681B68FB60BB7EC3F34303DBB210
:103A2800022B40F0CF803B8BC3F30A139BB2002BD1
:103A380040F3C980FB7ADBB21A46796813464FEA2D
:103A480043039B184FEAC3029B18CB1803F688035D
:103A5800D3F80630002B00F0B680FB7ADBB21A46AA
:103A6800796813464FEA43039B184FEAC3029B1831
:103A7800CB1803F68803D3F806203B8BC3F30A134D
:103A88009BB2786811461A46FDF701FC3B7EC3F3EA
:103A98000303DBB21A463B7EC3F30303DBB21946CA
:103AA80078680B464FEA43035B184FEAC3015B187B
:103AB800C31803F68803D3F806103B8BC3F30A1325
:103AC8009BB2C918786813464FEA43039B184FEA1C
:103AD800C3029B18C31803F68803C3F806103B7E7D
:103AE800C3F30303DBB21A463B7EC3F30303DBB223
:103AF800194678680B464FEA43035B184FEAC3013F
:103B08005B18C31803F50963D3F806103B8BC3F39E
:103B18000A139BB2C918786813464FEA43039B18E7
:103B28004FEAC3029B18C31803F50963C3F80610CC
:103B3800FB7ADBB21A46796813464FEA43039B18AF
:103B48004FEAC3029B18CB1803F50963D3F8063074
:103B5800FB61FB7ADBB21A467B6802F20A22F9693A
:103B68004FEA016153F8220020F07F40014343F8F7
:103B78002210FB7ADBB27A6803F122034FEA83034F
:103B8800D3189B681B693B617B8AC3F3C9039BB24B
:103B9800002B18DDFB7B43F08003FB73FB7B6FF38B
:103BA8008613FB73FB7ADBB27A6803F122034FEAD0
:103BB8008303D3189B68FA6819684FF000010A4319
:103BC8001A6000E000E000BF3B7D43F010033B7546
:103BD8007B68DB687A68D26891697A690A4399696F
:103BE8004FF000010A439A614FF00103184607F1AC
:103BF8002007BD4680BD00BF80B485B000AF7860A7
:103C08007B68D3F890301B68BB60FB7A43F0800375
:103C1800FB72FB7A43F04003FB727B68D3F8903069
:103C2800BA6819684FF000010A431A604FF00003A0
:103C3800FB60BB7B43F02003BB737B68DB68FA68DF
:103C480059694FF000010A435A614FF001031846C1
:103C580007F11407BD4680BC704700BF80B584B02B
:103C680000AF78604FF00003FB604FF00003BB60CB
:103C78007868FDF778FC0346002B72D07868FDF76A
:103C880077FC0346BB60BB68002B02D14FF00003F2
:103C980068E03B7A03F00803DBB2002B06D07868B3
:103CA800FEF7BEFB0346FA681343FB603B7A03F05A
:103CB8001003DBB2002B06D07868FFF77DFE0346C1
:103CC800FA681343FB603B7A03F02003DBB2002B56
:103CD80006D07868FEF7E8FB0346FA681343FB60F2
:103CE800FB7A03F00403DBB2002B06D07868FEF7FA
:103CF80005FD0346FA681343FB60FB7A03F00203F1
:103D0800DBB2002B06D07868FFF708FE0346FA6896
:103D18001343FB60FB7A03F00103DBB2002B06D0F0
:103D28007868FEF715FE0346FA681343FB60FB7AD2
:103D380003F02003DBB2002B06D07868FEF792FB75
:103D48000346FA681343FB60BB7A03F02003DBB237
:103D5800002B06D07868FFF74FFF0346FA68134335
:103D6800FB60FB68184607F11007BD4680BD00BF21
:103D7800D0F8E83723F07F4141F08072C0F8E82797
:103D880000207047D0F8E83723F07F41C0F8E817E3
:103D9800002070470020704738B5044600200D46C3
:103DA800FDF7FBF920462946BDE83840FEF7C0BAC2
:103DB800F8B50025402301260C468B7107460D7087
:103DC8004D708D70CE70CE76087F02F0F5FF211D04
:103DD8002577667784F87150384600F057FE3846E4
:103DE800611D00F053FE2846F8BD70B50C46154617
:103DF8000646FFF7DDFFC4F87250AB68304621462F
:103E0800984770BDF8B51546174A0C46137806460C
:103E180003F01001C8B2174670B1DB0703D5134889
:103E2800294607F05FF83A7802F00203D9B219B1CF
:103E38000E48294606F06CFE681F012808D8D4F8F9
:103E4800721030464B6C214698470B202070F8BD05
:103E5800072D07D10B22D4F8723022709A683046A9
:103E680021469047F8BD00BFCC0D0020DA38010884
:103E7800002370B50C468B74C97E05460D2900F2E7
:103E88005282DFE811F069020E001E007F008800F0
:103E9800E000F20041014A01B701CA0109025002DB
:103EA8004902627904F1130100F018FF0223E37656
:103EB8002846FEF799FA3222E081002022746074C5
:103EC80029E16179FEF794FA01281DD1E07C20F000
:103ED8007F02B4F81900D3B248B16FF0770013210C
:103EE800207461740BB1032208E0052206E0322138
:103EF800217460740BB1092200E00722E27628469B
:103F0800FEF772FAE08106E1032817D1934D28786D
:103F180000F01002D3B263B1C30702D5904806F08F
:103F2800E1FF297801F00200C2B212B18C4806F014
:103F3800EFFD0B230521E376A174ECE0002840F0A7
:103F4800EA802846FEF750FAE189228A401A904210
:103F580040F2E180814D2B7803F01001C8B20028AF
:103F680000F0A081D80702D57E4806F0BBFF2A786A
:103F780002F00203D9B2002900F09481794806F0D2
:103F8800C7FD8FE1B4F80B20D4F80710237900F0AF
:103F9800DBFE0422BEE02179FEF72AFA012802D1CD
:103FA8000921E17631E0042815D1627822706B4C42
:103FB800237803F01000C1B2002977D0D90702D5C1
:103FC800694806F08FFF227802F00203D8B2002871
:103FD8006CD0654868E0032817D10B23E3765F4C63
:103FE800207800F01001CAB2002A00F09480C207BD
:103FF80002D55E4806F076FF237803F00200C1B2CE
:10400800002900F088805948A4E02846FEF7ECF91A
:10401800E289831A208A83427DD90B21E1764F4CAD
:10402800227802F01003D8B2002874D0D30702D542
:104038004F4806F057FF217801F00202D3B2002B57
:1040480069D04B4886E094F905601B2000FB0652B6
:10405800012682F89B68B4F80B202846D4F807108C
:10406800637900F055FE062254E06179FEF7C0F945
:10407800012802D10721E17670BD042818D16178A2
:104088000C202170E076354C227802F01003D9B26A
:1040980061B1D00702D5374806F024FF207800F038
:1040A8000202D3B213B1334806F032FD022070BDCC
:1040B800022813D10520E076284C227802F0080364
:1040C800D9B241B3D10702D52B4806F00BFF2078AF
:1040D80000F00202D3B2F3B127483BE003281AD11B
:1040E8000B22E2761D4C237803F01001C8B290B180
:1040F800DA0702D5214806F0F5FE227802F002031D
:10410800D9B241B11D4825E000210A46237900F0C3
:104118001BFE0822E276012070BD2179FEF768F9BE
:10412800012806467ED003282CD10B20E0760B4CC4
:10413800227802F01001CBB2002BECD0D30702D5C5
:104148000F4806F0CFFE207800F00202D1B2002915
:10415800E1D00B4806F0DCFCDDE700BFCC0D002009
:10416800F43801083239010860390108A03901081A
:10417800E0390108103A0108513A0108953A010856
:10418800D63A01082846FEF72FF9E389218AC01A92
:10419800884215D90B21E176704C227802F0100381
:1041A800D8B20028B7D0D00702D56D4806F09AFEDD
:1041B800217801F00202D3B2002BACD06848C9E7DD
:1041C800042EA8D16278A6742270644C237803F078
:1041D8001000C1B261B1D90702D5624806F082FE6B
:1041E800227802F00203D8B210B15E4806F090FCC3
:1041F800042070BD94F905101B2202FB010393F8FB
:104208009B0880F0010183F89B1800210A46284684
:10421800637900F07DFD0A227CE76179FEF7E8F812
:10422800012804D163780D202370E07694E00228F9
:1042380017D10922E276494C237803F01000C1B265
:1042480000293FF468AFDA0702D5474806F04AFE6E
:10425800227802F00203D8B200283FF45CAF42484B
:1042680078E703287FF457AF0B23E3763B4C20789D
:1042780000F01001CAB2002A3FF44DAFC30702D5BF
:104288003A4806F02FFE237803F00200C1B2002955
:104298003FF441AF35485DE7617B4A1CD3B2022B3E
:1042A800637302D80120E07670BD60782B4A2070D5
:1042B8001378082503F01001C8B2A574154660B13B
:1042C800D80702D52A4806F00DFE2A7802F0020324
:1042D800D9B211B1264806F01BFC94F87100421CB3
:1042E800D3B2102B84F8713014D9042121701B4CDF
:1042F800207800F01002D3B263B1C10702D51D487F
:1043080006F0F0FD217801F00200C2B212B119489E
:1043180006F0FEFB032070BD94F87100E8B1013887
:1043280084F8710018E00D4D2B7803F01002D0B21C
:1043380000283FF4F0AEDA0702D50F4806F0D2FDA8
:10434800297801F00203DAB2002A3FF4E4AE0A4801
:10435800E17E06F0DDFBDEE6002070BDCC0D00201E
:10436800183B01084A3B01088C3B0108D23B010875
:10437800153C0108533C01088E3C0108F0B5D1F802
:104388007A6097B0D6F1010638BF002603230546A8
:104398000C468DF81730FEF712F850BB207840B362
:1043A800042829D0934803785A1CD1B205290170F2
:1043B80018D9914F387800F00801CBB263B1C00723
:1043C80002D58E4806F08EFD3A7802F00200C1B29E
:1043D80011B18A4806F09CFB2846FDF7EBFF042341
:1043E800237009E08648012303600268002AFCD193
:1043F800CCE2804900220A7020780B2800F2C6829D
:10440800DFE810F00C00C4023C0047009D02C40223
:10441800B800AD0074028702C4028C02002E00F0BE
:10442800B5822846FDF7CBFF764E28B33378284669
:104438001BB9FDF7D9FFC0B21EE0FDF7D5FF3278F2
:10444800811A962940F2A282032020706A4C2378B0
:1044580003F00402D1B2002900F09882D90702D5EE
:10446800694806F03FFD207800F00203DAB2002A1E
:1044780000F08C8264482FE0307087E22846FDF710
:10448800B3FF604A1178401A962840F27F820323CE
:104498007BE2617F0022237F00910192A079802234
:1044A8000290211D284600F07DFA0246B8B1524C10
:1044B800207800F01003DAB2002A00F06782C20701
:1044C80002D5524806F00EFD217801F00200C3B271
:1044D800002B00F05B824D4806F01AFB56E2617F24
:1044E800237F8DE80600A17928460291611D00F01E
:1044F80059FAA8B1404C227802F01001C8B200283D
:1045080000F04482D30702D5414806F0EBFC23783B
:1045180003F00202D1B2002900F038823C48DBE700
:10452800D4F8723028461A6921469047A6B1284621
:10453800FDF740FFD4F87220214653692846984772
:104548002846FDF72FFFC2B2D4F872006277036ADB
:104558002146284698470BE00720207043E028466C
:10456800FDF742FF274A1378C01A962840F20E82B8
:1045780006230AE2A178D4F87A600A2900F20682B2
:10458800DFE811F00B0068004800AD00D400DE0041
:104598000C012901460163018001284621460822B1
:1045A80000F07EFC002840F0F18194F825000122FB
:1045B800A071A270AEB92846FDF7FCFE94F905106B
:1045C8000096A379324601932846334600F038FA1C
:1045D80094F904100096A079324601903346284693
:1045E800A1E00221A1702846FDF7FEFE054BC1B2ED
:1045F8001970CBE1180C0020CC0D0020C83C010834
:10460800E4110020210C0020E53C0108133D0108BD
:10461800323D01082846FDF7E7FE92490A78831AD9
:10462800962B40F2B381002694F905100096A079E4
:10463800324601903346284600F002FA94F90410F5
:104648000096A279284601923346324600F0F8F9DE
:10465800012204E128462146122200F021FC0646E8
:10466800002840F09381D4F8721028464B6A04F170
:104678001E02214698472846214602F081FB031E68
:1046880017DD0321A1702377E18C228D1224009479
:10469800754808F09FF834462B19744893F8EB15C1
:1046A800013408F097F8122CF6D1714808F092F806
:1046B8006CE1704C207800F01002D1B2002900F0B3
:1046C8006581C00702D56C4806F00CFC237803F01E
:1046D8000200C2B2002A00F059816748FCE6284669
:1046E8002146227F00F0A7FC0646002840F04E81B4
:1046F8000220FCF763FDD4F872202846936A21460D
:1047080098470420A07094F90410227F334600963D
:104718000196284600F094F994F90510227F28465E
:1047280000960196334600F08BF92FE12846214682
:10473800092200F0A9FD002840F0288105228EE01A
:1047480028462146628E00F09FFD0646002840F06C
:104758001D81D4F8727004F14B00FF6A2146009065
:1047680004F13002284604F13903B847608EE18C21
:10477800228D237F0090414808F02CF8638E9E42DA
:1047880007DAA919394891F8EB1508F023F801362A
:10479800F4E7374808F01EF8062260E094F82C2069
:1047A80082B1FF2100912846214606AB00F0F5FBB7
:1047B800002840F0EB80D4F872202846136B21467D
:1047C80006AA05E0D4F872002D4A036B2146284654
:1047D8009847072243E094F82D2082B1FF210091E9
:1047E8002846214606AB00F0D8FB002840F0CE80D2
:1047F800D4F872202846536B214606AA05E0D4F85F
:1048080072001F4A436B214628469847082226E033
:1048180094F82E2082B1FF2100912846214606AB4C
:1048280000F0BBFB002840F0B180D4F87220284685
:10483800936B214606AA05E0D4F87200104A836BF0
:10484800214628469847092209E02846214694F837
:10485800352000F001FC002840F098800A22A27060
:1048680094E000BF210C0020523D01086F3D010873
:10487800E23C0108CC0D0020773D0108973D010876
:10488800B73D0108424E327802F00403D8B260B155
:10489800D10702D53F4806F025FB317801F0020226
:1048A800D3B213B13B4806F033F9D4F8720021466D
:1048B800C26B284690470825354825700378054679
:1048C80003F00401CAB2002A60D0DA0703D53248DF
:1048D800217F06F007FB287800F00203D9B20029EF
:1048E80054D02D48217F06F013F94FE0D4F87220F8
:1048F80021465368284698478DF817009DF81710E9
:10490800002943D09DF8172028462146FFF77AFA58
:104918003CE028462146FFF7ABFA37E0D4F872109E
:104928002846CB6821469847D4F872002146026889
:104938002846904728462146FFF73AFA26E0D4F859
:10494800722022B1936913B128462146984721461F
:104958002846FFF72DFAD4F8721059B1CA6812B177
:10496800284621469047D4F87200036813B12846B8
:104978002146984746B1284600F09FF8074A08485C
:1049880000211170C4F872000023237017B0F0BD25
:10499800CC0D0020BB3D0108DB3D0108210C0020A7
:1049A80010000020F8B59DF81850002404F5A16601
:1049B80000EB4606B6F90AC0E7B20CF4804C0FFAD1
:1049C8008CFCBCF1000F04D142F480423C46728159
:1049D80004E00134082CE9D14FF6FF7422B20C70C0
:1049E800511C2AD002F5A16100EB4106B6F90A1064
:1049F8001B2606FB020201F07F0682F88538C1F308
:104A0800C0119DF81C3082F88718BDF8201082F874
:104A18008A38002382F88668A2F88B1882F88858AA
:104A280082F89A3882F89B3815B9012182F88918DA
:104A3800E1B2FCF7BFFE002000E0FF2040B2F8BD65
:104A480070B50029BDF814401DDB22B11B2505FBFC
:104A5800010686F885281B2202FB0105B5F88B683C
:104A6800A64202D00CB1A5F88B4802FB010292F8CD
:104A780088489C4202D00BB182F88838C9B2FCF74A
:104A880099FE002000E0FF2040B270BD38B50C460A
:104A9800097805460B060CD4FDF70AF894F90000CE
:104AA80000F5A16105EB4102B2F90A309804810CC6
:104AB8005181FF222270002038BD002380F81A3A65
:104AC80080F81B3A80F81C3A80F81D3A80F81E3AA4
:104AD80080F81F3A80F8203A80F8213A80F8223A84
:104AE80080F8233A80F8243A80F8253A80F8263A64
:104AF80080F8273A80F8283A80F8293A184670470B
:104B080038B50C46C978012902D0022946D10BE0F4
:104B18002078C4F807206070022209202070A4F8C9
:104B28000B30E176E2704EE0E07E0D2804D10123DF
:104B38000020E370E07638BD0B2816D1234D287885
:104B480000F01002D1B261B1C10702D5204806F0C9
:104B5800C9F92B7803F00200C2B212B11C4805F063
:104B6800D7FF0121E170032038BD0C282BD1174D48
:104B78002A7802F01001CBB263B1D20702D51548EA
:104B880006F0B0F9287800F00202D1B211B111484C
:104B980005F0BEFF0123E370042038BD0B4A1378EB
:104BA800154603F01000C0B268B1DB0702D50A4809
:104BB80006F098F9297801F00202D3B21BB1064831
:104BC800E17805F0A5FF012038BD00BFCC0D00201D
:104BD800FA3D01081D3E0108423E01082DE9F8434F
:104BE80006463A48174602789846089D384B12F010
:104BF800010F0C461D60814603D03648A02106F0FF
:104C080071F999F8001001F00203D8B218B13148CF
:104C1800A02105F07DFF2E4A116839B1E37E0D2BE6
:104C280004D01BB10B2B01D00C2BF4D130462146FC
:104C3800FFF71EF9E078022805D100223046214608
:104C48001346FFF75DFF224A1560204D297811F0C1
:104C5800010F03D01F48AB2106F044F92B7803F06D
:104C68000200C2B21AB11B48AB2105F051FF304611
:104C780021463A464346FFF743FF054618B3811ECF
:104C8800CBB2022B1FD930462146FFF7F1F8054673
:104C98000238C2B2022A16D90D490B68002BE6D198
:104CA8000A4C207800F01002D1B261B1C00702D5D9
:104CB800094806F017F9237803F00200C2B212B1CE
:104CC800054805F025FF2846BDE8F883CC0D0020EF
:104CD800E41100206F3E0108983E010838B51B23F7
:104CE80003FB02030024C3F88E180325082183F868
:104CF800921883F8874883F88D5883F8934883F887
:104D0800944883F895481146FDF776FBC0B238BD44
:104D180070B51B2505FB0304002684F88768C4F8D2
:104D28008E18C4F8922812B9012284F89B2805FB32
:104D3800030292F89B1801B1022182F88D181946D6
:104D4800FDF75AFB002070BD38B51B2404FB030493
:104D5800012584F887580225C4F88E1884F88D58E0
:104D6800C4F892281946FDF747FB002038BD38B52E
:104D78001B2404FB0304C4F8922894F89B280025FC
:104D880084F88758C4F88E1802B1022284F88D2856
:104D98001946FDF731FB002038BD38B51B2404FB4C
:104DA8000304C4F8922894F89A28012584F88758AF
:104DB800C4F88E1802B1022284F88D281946FDF72E
:104DC8001BFB002038BD70B51B2505FB0304C4F888
:104DD800922894F89A28012684F88768C4F88E18CF
:104DE80002B1022205FB030595F89A1884F88D286C
:104DF80081F0010285F89A281946FDF7FDFA00208E
:104E080070BD70B51B2505FB0304C4F8922894F8FF
:104E18009A28002684F88768C4F88E1802B10222FE
:104E280005FB030595F89A1884F88D2881F001028E
:104E380085F89A281946FDF7DFFA002070BD037837
:104E4800C0F807104370012109230370A0F80B2054
:104E5800C1760020704738B51B2404FB03040125E4
:104E680084F887580025C4F88E18C4F8922884F866
:104E78008D581946FDF7C0FA284638BD38B51B24A9
:104E880004FB03040025C4F88E1884F88758C4F876
:104E9800922884F88D581946FDF7AEFA284638BD91
:104EA80070B5802316460622CB740A7500230122AA
:104EB8004B758A75CB750B76A1F8196000F2EB5229
:104EC800334605460C46FFF71BFE002843D195F8EC
:104ED800EB15082EA17795F8EC35E37795F8EE25D4
:104EE80095F8ED1501EB0223238495F8EF2584F856
:104EF800222095F8F01584F8231095F8F13584F8F8
:104F0800243095F8F22584F8252024D995F8F4154D
:104F180095F8F33503EB0122E28495F8F61595F838
:104F2800F53503EB0122228595F8F81595F8F73544
:104F380003EB0122628595F8F91584F82C1095F891
:104F4800FA3584F82D3095F8FB2584F82E2095F84D
:104F5800FC1584F82F1070BD70B562F07F02A1F8BF
:104F6800153003F47F43CA740622B3F5407FBDF8B9
:104F78001060059DBDF818400A7504D10922042364
:104F8800CA750B7601E0A1F817602A462346A1F8F6
:104F98001940BDE87040FFF7B3BDF0B585B0BDF866
:104FA80028601D4600F2EB5742F44073002200923D
:104FB800019702960446FFF7CFFFB8B994F8EC358D
:104FC800032B13D194F8EB1503468A1E9642A8BF0B
:104FD8001646B6B204F2ED54B34205D2E15C9A1C0F
:104FE80005F8011B93B2F7E700232B7005B0F0BD5D
:104FF800F0B562F07F02A1F8153003F47F43CA745C
:105008000622B3F5407FBDF81470069DBDF81C401C
:10501800089E0A7504D109220423CA750B7601E09B
:10502800A1F817702A462346A1F819400596BDE84D
:10503800F040FFF7D3BD30B500240525A1F81520B1
:1050480023462246CC740D75CC750C764C768C763E
:10505800BDE83040FFF754BD30B500240925A1F85C
:10506800152023462246CC740D75CC750C764C76EB
:105078008C76BDE83040FFF743BD00002DE9F04FC6
:105088001C461B780546037060788DB068700991DE
:105098000A92A178E27801EB02236B8020792871CB
:1050A80062796A71A179A971E379BDF85810EB7139
:1050B800227A09292A7240F2DC80022805D96E4931
:1050C8006E4800230B800370D3E06D4E307810F0EB
:1050D800010F04D06B4840F2012105F003FF33783B
:1050E80003F00202D1B221B1664840F2012105F075
:1050F8000FFD09266888B042E1D92378E418627860
:10510800F618042AB6B2F5D194F803B094F80280E0
:10511800BBF1020FEED8277894F805900497277909
:10512800CDF8149094F806A0E17994F80890022F2D
:10513800CDF818A00791CDF82090DBD8DFF8409182
:1051480099F80000C30704D54E4840F2122105F033
:10515800C9FE99F8003003F00202D1B221B14948E2
:1051680040F2122105F0D4FC5FFA88FA4FFA8AF06F
:10517800CDF808A0DDF828A00E2202FB00A1DDF87A
:105188002490092303FB00933B4A3C480391007891
:1051980011884FF0000C4FFA8CF2BA4264DA94F896
:1051A80000904C444E4494F80190B6B2B9F1050F02
:1051B800F1D14FF0070A0AFB02F9DDF80CA0CDF88F
:1051C80000900AEB0902DDF808904FFA89FA504579
:1051D80012D00499042019705870059906985971CD
:1051E80098710799089883F80280187283F803B0B9
:1051F8001F71D971404618E094F8049094F805A0FE
:1052080009EB0A2949452FDC049983F802801970B3
:1052180004215970059983F803B0597106991F71D3
:1052280099710799D971089919722178DDF8009058
:10523800DDF80CA00CF1010C0AF8091061785FFA8E
:105248008CFC5170A1789170E178D17094F8059038
:10525800217901EB09219180A179917161792279F4
:1052680002EB012189B296E7044B187002480180CD
:1052780040E70DB0BDE8F08F1A0C00201C0C002090
:10528800CC0D0020BB3E01088023F7B5002615464B
:1052980000F2EB57CB74062202230A754E758B7504
:1052A800CE750E76A1F819503A462B460C46FFF7F4
:1052B80027FC064648B9009504F1300004F139018D
:1052C80004F14B023B46FFF7D9FE3046FEBD70475E
:1052D8007047704738B5314B0C461A781D4612F0A6
:1052E800010F03D02E485A2105F0FCFD287800F064
:1052F8000201CBB21BB12A485A2105F009FC94F8E7
:1053080022102648032903D0092918D000292CD1B6
:10531800244AC4F87220007800F00403DAB2002AA4
:105328003AD0C00702D5204805F0DCFD1B490878B3
:1053380000F00203DAB2002A2ED01B4826E01B4BED
:10534800C4F87230007800F00402D3B2002B23D0E6
:10535800C20702D5164805F0C5FD1049087800F0C7
:105368000202D3B2C3B1124810E0037803F010026E
:10537800D0B288B1DB0702D50E4805F0B3FD074966
:105388000B7803F00202D0B230B10A4894F8221028
:10539800BDE8384005F0BCBB38BD00BFCC0D0020CF
:1053A800E53E010858000020173F0108A000002032
:1053B8005A3F0108943F01080B461A8D0248C98CD0
:1053C8001B7F07F007BA00BFD93F010838B5D1F8ED
:1053D8007A3005460C465BB1D3F87610002281F886
:1053E8004D20211DFFF752FB2846611DFFF74EFB9C
:1053F800002038BD10B50B4B1A781C4612F0010F6F
:1054080003D009489C2105F06DFD207800F00201C9
:10541800CBB22BB104489C21BDE8104005F078BB05
:1054280010BD00BFCC0D0020E53E010810B50B4BA8
:105438001A781C4612F0010F03D00948972105F08D
:1054480051FD207800F00201CBB22BB1044897211E
:10545800BDE8104005F05CBB10BD00BFCC0D0020BE
:10546800E53E010838B514460C4A1378154603F092
:105478000801C8B280B1DB0703D50948214605F009
:1054880031FD2A7802F00203D9B229B10448214635
:10549800BDE8384005F03CBB38BD00BFCC0D00204E
:1054A8000940010838B514460C4A1378154603F02C
:1054B8000801C8B280B1DA0703D50948214605F0CA
:1054C80011FD2A7802F00203D9B229B10448214615
:1054D800BDE8384005F01CBB38BD00BFCC0D00202E
:1054E8003240010838B514460C4A1378154603F0C3
:1054F8000801C8B280B1D90703D50948214605F08B
:10550800F1FC2A7802F00203D9B229B104482146F5
:10551800BDE8384005F0FCBA38BD00BFCC0D00200E
:105528005940010810B50B4B1A781C4612F0010FB0
:1055380003D009487E2105F0D5FC207800F002014F
:10554800CBB22BB104487E21BDE8104005F0E0BA8B
:1055580010BD00BFCC0D0020E53E010810B50B4B77
:105568001A781C4612F0010F03D00948792105F07A
:10557800B9FC207800F00201CBB22BB104487921A4
:10558800BDE8104005F0C4BA10BD00BFCC0D002026
:10559800E53E010810B50B4B1A781C4612F0010FB6
:1055A80003D00948552105F09DFC207800F0020140
:1055B800CBB22BB104485521BDE8104005F0A8BA7C
:1055C80010BD00BFCC0D0020E53E010810B50B4B07
:1055D8001A781C4612F0010F03D00948502105F033
:1055E80081FC207800F00201CBB22BB10448502195
:1055F800BDE8104005F08CBA10BD00BFCC0D0020EE
:10560800E53E010810B50B4B1A781C4612F0010F45
:1056180003D009484B2105F065FC207800F0020111
:10562800CBB22BB104484B21BDE8104005F070BA4D
:1056380010BD00BFCC0D0020E53E010810B50B4B96
:105648001A781C4612F0010F03D00948462105F0CC
:1056580049FC207800F00201CBB22BB10448462166
:10566800BDE8104005F054BA10BD00BFCC0D0020B5
:10567800E53E010810B50B4B1A781C4612F0010FD5
:1056880003D00948412105F02DFC207800F00201E3
:10569800CBB22BB104484121BDE8104005F038BA1F
:1056A80010BD00BFCC0D0020E53E0108014B0122D2
:1056B8001A707047200C0020014B00221A707047A6
:1056C800200C002008B59DF80C200548402A28BF6A
:1056D8004022029907F0C2FB024B01221A7008BD52
:1056E800040E00201E0C0020014B01221A70704786
:1056F8001F0C0020014B00221A7070471F0C00205D
:1057080008B59DF80C200548402A28BF4022029978
:1057180007F0A4FB024B01221A7008BD040E0020FA
:105728001E0C0020704770477047704770477047DD
:1057380070477047704770477047704770477047A9
:105748002DE9F04F91F834A087B006460D46BAF11E
:10575800000F13D1874A1378144603F01001C8B21A
:1057680060B1D80702D5844805F0BCFB277807F05C
:105778000202D3B213B1804805F0CAF9A84600273F
:10578800574580F2F38098F83E004FF0FF31032828
:10579800059140F0E780D5F87620722404FB0724B1
:1057A80094F94A30002BC0F2DD8094F84C305FFA4F
:1057B80087FB052B00F2BA80DFE803F003B8B83B9B
:1057C8000A59D4F8563030461B6829465A46984735
:1057D800DFF8A091032099F8001084F84C0001F03C
:1057E8000402D3B28BB1C90704D56448297F3A466D
:1057F80005F078FB99F8000000F00201CAB222B166
:105808005E48297F3A4605F083F95D4B0120187000
:10581800D5F87A1021B1D1F87600002280F84D2011
:10582800291D3046FFF732F93046691DFFF72EF97A
:1058380078E03046FBF7A1FE002800F09380B4F82A
:105848004F2094F84A30D2B204F10A013046FFF7EB
:10585800BAFA01200521607284F84C103046FCF732
:10586800C3FD82B2B4F85430A4F854207AE030462C
:10587800FCF7BAFDB4F85410B4F852308AB2801A62
:1058880098424FD2304694F84A10FCF7B1FD0128EF
:1058980035D1627A002A65D094F94A301B2101FB80
:1058A800036200206072D2F8969894F84E005FFA6E
:1058B80089F92B7F8DE80102E98C2A8D314806F0A1
:1058C80089FF2346181BC1B2494507D2997A2E4849
:1058D800039306F07FFF039A531CF3E72B4806F067
:1058E80079FFD4F856303046D3F804C094F84E30D7
:1058F8000A348DE8100229465A46E04732E030461D
:1059080094F84A10FCF774FD02282BD0304694F81E
:105918004A10FCF76DFD042824D1B4F852100A315E
:10592800A4F85210032384F84C301BE0DFF84490AD
:1059380099F8000000F01001CAB29AB1C20704D564
:105948001348297F3A4605F0CDFA99F8003003F05C
:105958000200C1B231B10E48297F3A4694F84C3062
:1059680005F0D6F8013708F1090809E7002007B063
:10597800BDE8F08FCC0D002085400108B440010837
:10598800440E0020EF4001086F3D0108E23C010889
:105998000E410108F8B5D1F87630722505FB0235BD
:1059A80095F95A0017460028069C9DF81C6013DDDF
:1059B80095F95B1091420FD195F95C30002B05DD0C
:1059C8002278934208D1013E0134F6B2204631468E
:1059D80005F15A0204F0F0FB95F96400002816DD81
:1059E80095F96510B94212D195F96630002B05DD9D
:1059F800227893420BD1013E0134F6B22146B31E00
:105A080011F8020BDAB2BDE8F84004F085BBF8BD26
:105A18002DE9F041D1F8763080460C4691F8347083
:105A28000BB9BDE8F0810026BE42D4F876001ADA38
:105A3800722505FB0605A5B1D5F8561089B18B6806
:105A4800F2B2404621469847D5F8560006F066FF60
:105A5800002285F8562085F8572085F8582085F8C3
:105A680059200136E0E706F059FF002084F8760057
:105A780084F8770084F8780084F87900BDE8F0812C
:105A88002DE9F04FD1F876308BB005460C460BB1B6
:105A9800FFF7BEFF94F834907221484606F0FAFEEC
:105AA800B74AC4F876001078164600F00801CFB25D
:105AB80077B1C20703D5B348494605F013FA3378DE
:105AC80003F00202D0B218B1AE48494605F020F8FA
