:020000040800F2
:10000000000002200D8D00082191000835920008A3
:100010007D920008B5920008ED92000800000000F3
:100020000000000000000000000000002593000810
:1000300061930008000000009D930008F5A30008EC
:10004000598D0008598D0008598D0008598D0008F8
:10005000598D0008598D0008598D0008598D0008E8
:10006000598D0008598D0008598D0008598D0008D8
:10007000598D0008598D0008598D0008598D0008C8
:10008000598D0008598D0008598D0008598D0008B8
:10009000598D0008598D0008598D0008598D0008A8
:1000A000598D0008598D0008598D0008598D000898
:1000B000598D0008598D0008598D0008598D000888
:1000C000598D0008598D0008598D0008598D000878
:1000D000598D000841980008598D0008598D000875
:1000E000598D0008598D0008598D0008598D000858
:1000F000598D0008598D0008598D0008598D000848
:10010000598D0008598D0008598D0008598D000837
:10011000598D0008598D0008598D0008598D000827
:10012000598D0008598D0008598D0008598D000817
:10013000598D0008598D0008598D0008598D000807
:10014000598D0008598D0008598D000809230008B1
:10015000598D0008598D0008598D0008598D0008E7
:10016000598D0008598D0008598D0008598D0008D7
:10017000C9220008BD220008598D0008598D0008C9
:04018000598D00088D
:1001880081F0004102E000BF83F0004330B54FEA40
:1001980041044FEA430594EA050F08BF90EA020FAD
:1001A8001FBF54EA000C55EA020C7FEA645C7FEA40
:1001B800655C00F0E2804FEA5454D4EB5555B8BF63
:1001C8006D420CDD2C4480EA020281EA030382EAD4
:1001D800000083EA010180EA020281EA0303362D66
:1001E80088BF30BD11F0004F4FEA01314FF4801C39
:1001F8004CEA113102D0404261EB410113F0004F4B
:100208004FEA03334CEA133302D0524263EB430301
:1002180094EA050F00F0A780A4F10104D5F1200E9F
:100228000DDB02FA0EFC22FA05F2801841F10001FA
:1002380003FA0EF2801843FA05F359410EE0A5F1CE
:1002480020050EF1200E012A03FA0EFC28BF4CF0FF
:10025800020C43FA05F3C01851EBE37101F00045B5
:1002680007D54FF0000EDCF1000C7EEB00006EEBC2
:100278000101B1F5801F1BD3B1F5001F0CD349084C
:100288005FEA30004FEA3C0C04F101044FEA4452A3
:1002980012F5800F80F09A80BCF1004F08BF5FEA2A
:1002A800500C50F1000041EB045141EA050130BD0A
:1002B8005FEA4C0C404141EB010111F4801FA4F1AD
:1002C8000104E9D191F0000F04BF01460020B1FA02
:1002D80081F308BF2033A3F10B03B3F120020CDA3A
:1002E8000C3208DD02F1140CC2F10C0201FA0CF018
:1002F80021FA02F10CE002F11402D8BFC2F1200C7D
:1003080001FA02F120FA0CFCDCBF41EA0C01904032
:10031800E41AA2BF01EB0451294330BD6FEA04047B
:100328001F3C1CDA0C340EDC04F11404C4F1200266
:1003380020FA04F001FA02F340EA030021FA04F378
:1003480045EA030130BDC4F10C04C4F1200220FACF
:1003580002F001FA04F340EA0300294630BD21FA0D
:1003680004F0294630BD94F0000F83F4801306BFD3
:1003780081F480110134013D4EE77FEA645C18BFC7
:100388007FEA655C29D094EA050F08BF90EA020F5E
:1003980005D054EA000C04BF1946104630BD91EA56
:1003A800030F1EBF0021002030BD5FEA545C05D159
:1003B8004000494128BF41F0004130BD14F5800498
:1003C8003CBF01F5801130BD01F0004545F0FE410C
:1003D80041F470014FF0000030BD7FEA645C1ABF41
:1003E800194610467FEA655C1CBF0B46024650EA78
:1003F800013406BF52EA033591EA030F41F40021A4
:1004080030BD00BF90F0000F04BF0021704730B529
:100418004FF4806404F132044FF000054FF00001FE
:1004280050E700BF90F0000F04BF0021704730B5BF
:100438004FF4806404F1320410F0004548BF404294
:100448004FF000013EE700BF42004FEAE2014FEAE9
:1004580031014FEA02701FBF12F07F4393F07F4FC4
:1004680081F06051704792F0000F14BF93F07F4FF6
:10047800704730B54FF4607401F0004521F0004139
:1004880020E700BF50EA010208BF704730B54FF0BF
:1004980000050AE050EA010208BF704730B511F0C4
:1004A800004502D5404261EB41014FF4806404F1FC
:1004B80032045FEA915C3FF4DCAE4FF003025FEA7E
:1004C800DC0C18BF03325FEADC0C18BF033202EB06
:1004D800DC02C2F1200300FA03FC20FA02F001FA60
:1004E80003FE40EA0E0021FA02F11444C1E600BFFF
:1004F80070B54FF0FF0C4CF4E06C1CEA11541DBFB2
:100508001CEA135594EA0C0F95EA0C0F00F0DEF87C
:100518002C4481EA030621EA4C5123EA4C5350EA61
:10052800013518BF52EA033541F4801143F48013B2
:1005380038D0A0FB02CE4FF00005E1FB02E506F043
:100548000042E0FB03E54FF00006E1FB03569CF098
:10055800000F18BF4EF0010EA4F1FF04B6F5007F9E
:1005680064F5407404D25FEA4E0E6D4146EB060610
:1005780042EAC62141EA55514FEAC52040EA5E5099
:100588004FEACE2EB4F1FD0C88BFBCF5E06F1ED843
:10059800BEF1004F08BF5FEA500E50F1000041EB7A
:1005A800045170BD06F0004646EA010140EA020027
:1005B80081EA0301B4EB5C04C2BFD4EB0C0541EA49
:1005C800045170BD41F480114FF0000E013C00F35E
:1005D800AB8014F1360FDEBF002001F0004170BD82
:1005E800C4F10004203C35DA0C341BDC04F114049B
:1005F800C4F1200500FA05F320FA04F001FA05F227
:1006080040EA020001F0004221F0004110EBD370F3
:1006180021FA04F642EB06015EEA430E08BF20EA1F
:10062800D37070BDC4F10C04C4F1200500FA04F3C2
:1006380020FA05F001FA04F240EA020001F0004154
:1006480010EBD37041F100015EEA430E08BF20EAC7
:10065800D37070BDC4F1200500FA05F24EEA020E0F
:1006680020FA04F301FA05F243EA020321FA04F03E
:1006780001F0004121FA04F220EA020000EBD370F5
:100688005EEA430E08BF20EAD37070BD94F0000FF5
:100698000FD101F00046400041EB010111F4801F29
:1006A80008BF013CF7D041EA060195F0000F18BFDA
:1006B800704703F00046520043EB030313F4801F16
:1006C80008BF013DF7D043EA0603704794EA0C0FD0
:1006D8000CEA135518BF95EA0C0F0CD050EA4106E6
:1006E80018BF52EA4306D1D181EA030101F0004163
:1006F8004FF0000070BD50EA410606BF104619468B
:1007080052EA430619D094EA0C0F02D150EA013696
:1007180013D195EA0C0F05D152EA03361CBF1046D7
:1007280019460AD181EA030101F0004141F0FE4176
:1007380041F470014FF0000070BD41F0FE4141F4FA
:10074800780170BD70B54FF0FF0C4CF4E06C1CEAFA
:1007580011541DBF1CEA135594EA0C0F95EA0C0FAF
:1007680000F0A7F8A4EB050481EA030E52EA03356A
:100778004FEA013100F088804FEA03334FF080558B
:1007880045EA131343EA12634FEA022245EA1115B8
:1007980045EA10654FEA00260EF000419D4208BF69
:1007A800964244F1FD0404F5407402D25B084FEA16
:1007B8003202B61A65EB03055B084FEA32024FF4C2
:1007C80080104FF4002CB6EB020E75EB030E22BF1F
:1007D800B61A754640EA0C005B084FEA3202B6EBDF
:1007E800020E75EB030E22BFB61A754640EA5C008E
:1007F8005B084FEA3202B6EB020E75EB030E22BF1E
:10080800B61A754640EA9C005B084FEA3202B6EB1E
:10081800020E75EB030E22BFB61A754640EADC00DD
:1008280055EA060E18D04FEA051545EA16754FEA3F
:1008380006164FEAC30343EA52734FEAC2025FEA5D
:100848001C1CC0D111F4801F0BD141EA00014FF0EC
:1008580000004FF0004CB6E711F4801F04BF0143BD
:100868000020B4F1FD0C88BFBCF5E06F3FF6AFAED9
:10087800B5EB030C04BFB6EB020C5FEA500C50F169
:10088800000041EB045170BD0EF0004E4EEA1131EC
:1008980014EB5C04C2BFD4EB0C0541EA045170BDF3
:1008A80041F480114FF0000E013C90E645EA060E37
:1008B8008DE60CEA135594EA0C0F08BF95EA0C0F65
:1008C8003FF43BAF94EA0C0F0AD150EA01347FF4AD
:1008D80034AF95EA0C0F7FF425AF104619462CE784
:1008E80095EA0C0F06D152EA03353FF4FDAE1046E7
:1008F800194622E750EA410618BF52EA43067FF438
:10090800C5AE50EA41047FF40DAF52EA43057FF4C7
:10091800EBAE12E74FF0FF3C06E000BF4FF0010CD2
:1009280002E000BF4FF0010C4DF804CD4FEA410C36
:100938007FEA6C5C4FEA430C18BF7FEA6C5C1BD003
:1009480001B050EA410C0CBF52EA430C91EA030F84
:1009580002BF90EA020F0020704710F1000F91EAE1
:10096800030F58BF994208BF90422CBFD8176FEAAF
:10097800E37040F0010070474FEA410C7FEA6C5C7D
:1009880002D150EA013C07D14FEA430C7FEA6C5C84
:10099800D6D152EA033CD3D05DF8040B704700BFB0
:1009A8008446104662468C461946634600E000BFFE
:1009B80001B5FFF7B7FF002848BF10F1000F01BDD0
:1009C8004DF808EDFFF7F4FF0CBF012000205DF89B
:1009D80008FB00BF4DF808EDFFF7EAFF34BF012020
:1009E80000205DF808FB00BF4DF808EDFFF7E0FFB9
:1009F80094BF012000205DF808FB00BF4DF808ED0A
:100A0800FFF7CEFF94BF012000205DF808FB00BF70
:100A18004DF808EDFFF7C4FF34BF012000205DF852
:100A280008FB00BF4FEA410212F5001215D211D59A
:100A38006FF47873B3EB625212D94FEAC12343F0D3
:100A4800004343EA505311F0004F23FA02F018BF55
:100A5800404270474FF00000704750EA013005D11E
:100A680011F0004008BF6FF0004070474FF00000E1
:100A7800704700BF4BB942B9002908BF002802D00F
:100A88004FF0FF31084600F03BB882B0EC462DE944
:100A9800005000F01DF8DDF804E002B00CBC70470F
:100AA8002DE9F0411646984604460D4600F02AF80E
:100AB80006FB01FCA6FB002300FB08C7FB18A21AD3
:100AC80065EB0303069CC4E90023BDE8F08100BF81
:100AD8002DE9F041904606460F461D4600F070F994
:100AE80000FB05F3A0FB084508FB0138069B4544BD
:100AF800341B67EB0505C3E90045BDE8F08100BF7D
:100B0800704700BF00292DE9F00F1D46C0F29D80F7
:100B18000024002DC0F2948080460F4694461E465D
:100B2800E3BB8A4255D9B2FA82F747B1C7F120052B
:100B380020FA05F601FA07F1BA40B8403143170C1C
:100B4800B1FBF7F61FFA82FC07FB16110CFB06F542
:100B5800030C43EA01439D4208D9711E9B1880F09B
:100B680013819D4240F21081023E9B18591BB1FB34
:100B7800F7F507FB15130CFB05FC80B240EA0341AF
:100B88008C4507D96B1E8A1880F00081944540F285
:100B9800FD80023D45EA0641002503E08B420CD961
:100BA800002529460A462B4614B1524263EB4303FB
:100BB80010461946BDE8F00F7047B3FA83F5002DCB
:100BC80040F087808B4201D38242EAD80025012178
:100BD800E8E712B90126B6FBF2F2B2FA82F6002E65
:100BE80039D18E1A130C1FFA82FC0125B6FBF3F7D4
:100BF80003FB17610CFB07F84FEA104949EA014665
:100C0800B04506D9791EB61802D2B04500F2D38095
:100C18000F46C8EB0606B6FBF3F103FB11630CFBAA
:100C280001FC80B240EA03439C4506D94E1E9A183F
:100C380002D2944500F2C280314641EA0741B1E749
:100C4800E443524263EB430366E7404261EB4101F0
:100C58004FF0FF345DE7B240C6F1200921FA09F7E9
:100C680020FA09F901FA06F1130CB7FBF3F81FFA99
:100C780082FC03FB18770CFB08F549EA01094FEAE7
:100C8800194141EA0747B040BD420AD9BF1808F1E7
:100C9800FF3680F08E80BD4240F28B80A8F10208BA
:100CA800BF18791BB1FBF3F503FB15170CFB05F611
:100CB8001FFA89F949EA07418E4206D96F1E891839
:100CC80071D28E426FD9023D89188E1B45EA0845BC
:100CD8008CE7C5F1200122FA01F306FA05F627FA96
:100CE80001F207FA05F720FA01F11E434FEA164907
:100CF800B2FBF9F81FFA86FA09FB18220AFB08FB6F
:100D08000F433B0C43EA024293450CFA05FC08D911
:100D1800921908F1FF314AD2934548D9A8F102083F
:100D28009219CBEB0203B3FBF9F109FB11320AFB71
:100D380001FABFB247EA02439A4506D94A1E9B19EF
:100D480033D29A4531D902399B1941EA08410F0C2F
:100D58001FFA8CF808FB07F68AB24FEA1C4C08FB0E
:100D680002F80CFB02620CFB07FC02EB18429642ED
:100D780088BF0CF5803CCAEB03030CEB124C6345AF
:100D88000ED305D000250DE70E46EFE61D4601E718
:100D980000FA05F01FFA88F808EB0245A842F1D2DC
:100DA80001390025FEE63D468FE71146CDE7884626
:100DB800B7E7B04675E7023FB6182AE702393CE7BD
:100DC8002DE9F007144605460E46002B3DD18A4210
:100DD80049D9B2FA82F747B1C7F1200120FA01F2E6
:100DE80006FA07F6BC40BD401643220CB6FBF2F0EB
:100DF800A1B202FB106601FB00F32F0C47EA06467E
:100E0800B34208D9471E361980F0FA80B34240F23F
:100E1800F78002383619F61AB6FBF2F302FB1362B2
:100E280001FB03F1ADB245EA0242914207D95E1EC9
:100E3800121980F0E780914240F2E480023B43EAD5
:100E480000400021BDE8F00770478B4243D8B3FA51
:100E580083F4002C42D18B4202D3824200F2E1801B
:100E680000210120EEE712B90127B7FBF2F4B4FA2A
:100E780084F2002A40F089800A1B230CA7B20121C2
:100E8800B2FBF3F603FB162207FB06F04FEA154CFC
:100E98004CEA0242904207D9121906F1FF3C02D2ED
:100EA800904200F2D0806646121AB2FBF3F003FBC0
:100EB800102307FB00F7ADB245EA03439F4207D969
:100EC800421E1B1980F0A0809F4240F29D8002388C
:100ED80040EA0640B6E700210846B3E7C4F1200619
:100EE80022FA06F703FA04F321FA06F501FA04F1E7
:100EF80020FA06F63B434FEA134CB5FBFCF71FFA02
:100F080083F80CFB175508FB07F946EA010A4FEA74
:100F18001A4141EA0545A94502FA04F204D97E1EA0
:100F2800ED18C0F081803746C9EB0501B1FBFCF62E
:100F38000CFB161508FB06F81FFA8AFA4AEA05415F
:100F4800884503D9751EC91874D32E4646EA074644
:100F5800370C1FFA82FC0CFB07F5120CB3B20CFB22
:100F680003FC02FB035302FB07F203EB1C439D4205
:100F780088BF02F58032C8EB010102EB13429142AF
:100F88004CD343D0304600215CE79440C2F12005A1
:100F980021FA05F620FA05F501FA02F1230CB6FB51
:100FA800F3FCA7B203FB1C6607FB0CF829430D0CE6
:100FB80045EA0646B04500FA02F508D936190CF19B
:100FC800FF303ED2B0453CD9ACF1020C3619C8EB23
:100FD8000602B2FBF3F003FB102607FB00F889B208
:100FE80041EA0642904506D9461E121927D2904575
:100FF80025D902381219C8EB020240EA0C413FE732
:10100800384608E733461AE7104661E700FA04F065
:101018001FFA8CFC0CEB03439842B3D2701E0021DC
:1010280010E7214620460DE7A9457FF67CAF023F31
:10103800ED1879E7884588D9023EC91886E7304611
:10104800D9E78446C3E7023E12192DE72DE9F3419B
:101058000120014607F080FF03204FF4C05300240D
:1010680002258DF805006946394800938DF804502B
:101078008DF806408DF8074007F06CFE34480B21C8
:101088000A2207F0C8FE0A2231480C2107F0C3FEE5
:101098002846012107F060FF0420012107F05CFFCA
:1010A8004FF440474FF001082A4869462026009728
:1010B8008DF805508DF804808DF806408DF80740AE
:1010C80007F048FE2448694600968DF805508DF8CB
:1010D80004808DF806408DF8074007F03BFE1D4858
:1010E800394607F095FE31461B4807F091FE1B492B
:1010F8004FF496720A600C68002CFCD12021164827
:1011080007F083FE032002214FF440438DF80500C9
:101118008DF804100F48694600938DF806408DF845
:10112800074007F017FE0E210C220A4807F073FE4D
:101138000F210C22074807F06EFE01214FF00050E6
:1011480007F00AFF8020012107F012FFBDE8FC81AB
:10115800000002400004024000080240440E002043
:1011680037B543230024012501A88DF804308DF8F4
:1011780005408DF806408DF8075007F087FD4D2093
:101188008DF8040001A88DF805408DF806408DF80B
:10119800075007F07BFD3EBD7047704778214843F4
:1011A80082B0002307220193B0FBF2F0019B591C87
:1011B80081420191FAD902B070470000024B1860D1
:1011C8001A68002AFCD17047440E002082B0002320
:1011D8000193C0686FF0804142684FF0FF3242606F
:1011E800426941619DF807309DF8051043F080027F
:1011F80041F008038DF807208DF805308269019ABF
:10120800826102B07047000037B50023104C0546D4
:1012180001930320FFF7C2FFE868013C02690192CD
:1012280014D001990029F4DA019B43F001020192DC
:10123800019B074A016903610169013A019102D0E2
:10124800019BD907F8D40320FFF7A8FF00203EBD73
:10125800410D030030B5C4786CB9323200EB82001E
:10126800033385689B1022469A4204D051F8220025
:1012780001322860F8E7002030BD10B50332D0F8FD
:10128800D0409210002393424FEA830004D0206894
:1012980041F823000133F6E7081810BD012270B5A4
:1012A800002340249142C3708270047143710BD1B2
:1012B80004230822847102244370C1720270C17130
:1012C80004724FF0A0430CE059B90C2303700223B9
:1012D800C17206248171037205211F4B4470C171CC
:1012E800427203F5006144780161C36003F510613F
:1012F8000022A24208D200EB820501F50076A9611E
:101308006E6501322031F4E703F5886403F58062E5
:10131800C0F8CC400478426103F5A0610022A242E3
:1013280006D200EB8205C5F8901001322031F6E7AD
:1013380003F580510022A24207D200EB8205C5F8CE
:10134800D010013201F58051F5E703F56063C0F86C
:101358000C31002070BD00BF000004401FB5037AA7
:10136800002202920392012B0446C36837D1986B7E
:10137800010C62F30001627A02908DF80A1022B122
:10138800C8B240F010018DF80A109A6B029A9A635D
:10139800D8680146C0F3074201906FF3861142F006
:1013A80010008DF8041000F0BD016FF3C3018DF833
:1013B8000610DA68019A2046DA60FFF725FFE3781D
:1013C800012B2DD19DF80C00E36800F0C10141F01C
:1013D8002A028DF80C2003989A68986020E0D96852
:1013E800CAB2019142F040018DF80410DA68019AFE
:1013F800DA60FFF709FF9DF80A00617A40F02D03D3
:101408008DF80A3029B19DF80A2042F010008DF8B5
:101418000A00E36802999A6B14209963FFF7CEFEDD
:10142800E17801290BD1E3689A6802F0C10040F025
:101438002A0103928DF80C109A68039A9A6000208A
:1014480004B010BD82B00022012301928DF804304F
:10145800C36801999868014398689960104602B07A
:10146800704782B00022012301928DF80430C368CE
:101478000199986820EA010198689960104602B0BD
:101488007047000007B500230193019A42F020033A
:101498000193019A61F38A120192C3680198074A7D
:1014A800196918611969013A019102D001988006F9
:1014B800F8D40320FFF772FE00200EBD410D030093
:1014C80007B500230193019941F010020192C06809
:1014D800019B074A016903610169013A019102D040
:1014E800019BD906F8D40320FFF758FE00200EBD53
:1014F800410D030007B5C368DA68100E019200F0C9
:10150800DF026FF3861201298DF8072003D1D2B2CA
:1015180042F0200004E029B99DF8071041F040008E
:101528008DF807000199DA683220D960FFF746FE86
:1015380000200EBDC368586900F0010181F0010068
:101548007047C368586900F001007047C3685A695A
:101558009869104070474369986800F0010181F06C
:101568000100704713B500220192C36804469969C7
:101578009A614FF0FF315A695961FFF727FEE07809
:1015880028B99DF8042042F010038DF804309DF826
:1015980007109DF8042041F023009DF8061042F042
:1015A80008038DF807008DF8043041F02000E36847
:1015B8008DF806009969019A21EA020141EA0200C0
:1015C8009969986100201CBD436982B01A6801922C
:1015D80061F301028DF8042001981A68186002B0BE
:1015E8007047D0F8CC3082B0186800F0F1016FF382
:1015F800451101908DF80410019802B0704737B575
:1016080004460D46FFF7C8FD2046FFF7EAFF0190A4
:10161800C0F3072000F01003D9B249B9012D07D152
:1016280040F010028DF80520D4F8CC00019B03602F
:101638009DF8051001F01002D0B240B13DB965F334
:1016480004118DF80510019BD4F8CC100B60C8204C
:1016580003B0BDE83040FFF7B1BD43695869704732
:1016680013B50446FFF7BDFF0190C0F3072040F013
:1016780001018DF80510D4F8CC20019B0A201360D5
:10168800FFF79CFD9DF80500D4F8CC106FF300001F
:101698008DF80500019A14200A60FFF78FFD0120DC
:1016A8001CBD30B5044685B0002501950295FFF7AD
:1016B80074FDD4F80C3120461D60217A01290CBF35
:1016C80029460121FFF780FF2046FFF7C9FF60691F
:1016D800026803926FF382028DF80C20039B026864
:1016E8000360E17A012915D1E0686023426A80220B
:1016F8004262ADF80420ADF80630816A0199E02213
:101708008162ADF80820ADF80A30029BD0F80021BC
:10171800C0F80031E07AC0B9E3684FF400715A6A42
:101728004FF480725962ADF80410ADF806200198A4
:10173800996A4FF440719862ADF80810ADF80A2024
:10174800D3F80021029AC3F8002110212046FFF7A0
:1017580099FE2046FFF7B4FE0023207883420DD27D
:1017680003F1220104EB81029068002281684FF0A6
:10177800FF318160C1680133C260EEE72046012174
:10178800FFF73DFF2046FFF7EDFE002005B030BD16
:1017980030B5002385B001F122020293019303932F
:1017A80000EB8204A3684FF0FF359A689D60C27809
:1017B800012A05D19DF8044044F004058DF8045031
:1017C8001B2202FB010494F88A58032D56D8DFE83F
:1017D80005F0023802239DF805509DF8042045F0D5
:1017E800040442F099021B258DF8042005FB010230
:1017F8008DF8054092F8874804BB9DF8045045F0E1
:1018080040048DF8044092F88928BAB3E5B245F04F
:1018180020048DF8044031E09DF804209DF805501F
:1018280042F099048DF804401B2445F0060204FB9D
:1018380001058DF8052095F88728FAB19DF805402F
:1018480018E09DF804509DF8054045F021021B253D
:101858008DF8042005FB010244F002048DF80540D0
:1018680092F8875855B19DF80420E4B242F08005FB
:101878008DF8045044F001028DF80520012404FA83
:1018880001F4019DDA68DD60426995692C43956928
:1018980094619DF80B2042F002058DF80B50C26848
:1018A800029C95692C43956994611B2202FB0100F7
:1018B800BDF80E2090F8851861F38C12ADF80E2053
:1018C80090F886189DF80D2061F3C6028DF80D205A
:1018D80090F8871861F3C7128DF80D2090F88828C2
:1018E800B2F1020CDCF100019DF80E2051EB0C0165
:1018F80061F341028DF80E2090F88A289DF80E10A9
:10190800032A62F383018DF80E10B0F88B08BDF836
:101918000C1060F30A01ADF80C1005D19DF80F20EA
:1019280042F020008DF80F0003991A680020196012
:1019380005B030BD70B51B22044602FB010086B01D
:10194800002301930393D0F892680D467EB1B0F856
:101958008B18721E5618B6FBF1F39BB2B3F5807F55
:1019680006D90902C0F892184FF4807300E00123E9
:101978001B2000FB054292F8876826B1B2F88B1845
:101988005943C2F892181B2000FB0541019AD1F86F
:10199800926866F31202100C63F3CC000192ADF862
:1019A800060091F88D38020A63F3461205F1220009
:1019B8008DF8072004EB8002936801981A69186172
:1019C800E278012A03D1D1F88E085969586119685B
:1019D80020460091FFF7BFFD9DF8033060F34513E3
:1019E80063F07F026FF3861205F122008DF8032061
:1019F80004EB80018B681A68009A1A60E078002866
:101A080041D11B2101FB054292F88738002B3AD1BE
:101A1800D2F89238002B36D092F88A08032828D8B2
:101A2800DFE800F002120212E268D81CD16AC0F3A3
:101A38008F00049189B281421BD29DF80C1041F0AD
:101A480020008DF80C000FE06169D81C0A69C0F30A
:101A58008F01029292B28A420BD29DF80F0040F099
:101A680004028DF80F20E268906903990143906998
:101A780091611B2202FB05412046D1F88E182A46A7
:101A88009BB2FFF7E7FB002006B070BD223100EBE8
:101A980081018B6884B01A68110E019241F0C0016F
:101AA800C2F307428DF8071012F00C0101D0082983
:101AB80003D1C168CA6A029202E0406902690092D1
:101AC800C2F3074028B99DF8072060F3C7128DF8C4
:101AD800072001991A680020196004B0704713B5EF
:101AE8000022802301928DF80730BDF806300124CA
:101AF80064F3CC032231ADF8063000EB8100836833
:101B08001969019919611868010E009061F07F0048
:101B180062F386108DF80300196800991046196061
:101B28001CBD036982B01A68019261F301028DF845
:101B3800042001981A68186002B0704713B5002293
:101B48000192C368044699699A616FF080415A69A5
:101B58005961FFF73BFBE07828B99DF8042042F073
:101B680010038DF804309DF805109DF806309DF897
:101B7800042041F038008DF8050042F0080143F0D8
:101B88003C00E3688DF806008DF804109969019A05
:101B980021EA020141EA02009969986100201CBD0E
:101BA80030B5002589B003950495D0F80C3104466A
:101BB8001D6001690A68130A65F3C40302928DF86F
:101BC80009300A68029A0A60C17A01292BD10321D7
:101BD800FFF7A7FFE0688023426A40224362ADF81E
:101BE8000E20ADF80C30816A0399C0228162ADF8ED
:101BF8001230ADF81020049BD0F80421C0F804314D
:101C0800BDF812204FF4A07165F30F02ADF8101063
:101C1800ADF81220049BD0F80811C0F80831D0F8AC
:101C28000C11C0F80C31E17A00293BD1227A204608
:101C3800012A18BF0121FFF774FFE0684FF4007311
:101C48008021426A4362ADF80E10ADF80C30826A0A
:101C5800039A4FF420734FF4BA718262ADF81030D2
:101C6800ADF81210D0F80421049A4FF47D73C0F82F
:101C78000421BDF81210ADF810306FF30F01ADF864
:101C88001210049AD0F80811C0F80821D0F80C11E5
:101C9800C0F80C21D0F81011C0F81021D0F8141198
:101CA800C0F8142110212046FFF7ECFB2046FFF76F
:101CB80007FC20694FF0FF33026900220261416985
:101CC800426181698361C169C26161788A421BD2BC
:101CD800131D04EB830083681968080E00F0800167
:101CE800C8B228B10021482001918DF8070000E012
:101CF800019019680199002019601969186199689B
:101D0800FF2199600132E0E70022607882421CD20C
:101D180002F1140304EB830043681968080E00F00D
:101D28008001C8B228B10021482007918DF81F0012
:101D380000E007901968079900201960196918616F
:101D48009968FF2199600132DFE70123002205929B
:101D58008DF8153023690599186920EA01000143B7
:101D680018691961E078012819D1069203228DF8C3
:101D78001820BDF818009DF81A20402161F38A0048
:101D8800ADF8180042F001008DF81A00BDF81A20CD
:101D980061F34902ADF81A2006991A6B19632046B7
:101DA800FFF7CCFE002009B030BD0000036982B007
:101DB8009968C1F34103591E02299ABF024A505C2F
:101DC800032002B0704700BF182101081FB5002486
:101DD800039403699A68019282699DF80400116866
:101DE800C0F341000228029102D064F30A0102E024
:101DF800032060F30A01ADF8081011680299116018
:101E08009DF80D2042F001008DF80D005968039AE5
:101E180021EA020141EA020059685860002004B032
:101E280010BD13B54C780023012C01930B7808D111
:101E38001A1D04FA03F300EB82029268ADF804302D
:101E480009E003F1140200EB82046268012404FA39
:101E580003F3ADF8063013680093C3F3072303F0C8
:101E68008003DBB213BB8C68BDF8003064F30A034F
:101E7800ADF80030CC789DF8023064F383038DF818
:101E88000230C988BDF8023061F38913C3F3072112
:101E9800ADF8023041F010039DF801108DF80330C1
:101EA80041F080038DF80130009911600069019AB2
:101EB800C369C1691343C36100201CBD13B54C78C5
:101EC8000023012C009301930B7808D11A1D04FA02
:101ED80003F300EB82018A68ADF8043009E003F1EE
:101EE800140200EB82014A68012101FA03F3ADF8FC
:101EF80006309DF801106FF3C7118DF80110009B93
:101F080013600069019AC16921EA0203C169C361CA
:101F180000201CBD30B54D7885B0012D0A460B78E0
:101F28006BD11C1D00EB84039B68196801911C6927
:101F3800516961F31204029429B9240C65F3CC04A5
:101F4800ADF80A4013E0946809190139B1FBF4F1BE
:101F5800BDF80A4061F3CC04ADF80A40D478012CEE
:101F680005D19DF80B1064F346118DF80B10196913
:101F780002991961C378012B08D113781C1D00EB55
:101F880084018B6811695C6959610DE0D178012978
:101F98000AD0536943B11178012505FA01F10369A3
:101FA8005C6B21435C6B5963D378012B0DD10169BC
:101FB8008B689DF8071013F4807F0CBF41F0200157
:101FC80041F0100103938DF807109DF8073043F096
:101FD80084018DF807101378191D00EB81039B68A5
:101FE800196801991960D378012B56D15369D168C2
:101FF8009BB21278FFF72EF94FE0143300EB830100
:102008004B681C6801941C690294556991684DB924
:1020180061F3120402940121240C61F3CC04ADF89D
:102028000A4010E06D186C1EBDF80A50B4FBF1F4BC
:1020380064F3CC05A405A40D6143ADF80A50029CD5
:1020480061F312040294196902991961C378012B8A
:1020580007D11478143400EB84014B6811695C696A
:102068005961D378012B0AD151799DF8073011B104
:1020780043F0200101E043F010018DF807109DF8AE
:10208800073043F084018DF8071012780199143253
:1020980000EB820043681A681960002005B030BD63
:1020A80030B54D7885B0012D49D183691C680194FC
:1020B8001A6902924A699DF8084042B962F3060417
:1020C8009DF80A208DF8084065F3C4020EE08D687B
:1020D800AA428ABF4D6162F3060465F306049DF8BF
:1020E8000A208DF80840012464F3C4028DF80A2000
:1020F8001A69029A1A61C278012A07D10D782C1D33
:1021080000EB840292680C69556954619DF80720B8
:1021180042F084028DF807201A68019A1A60C37881
:10212800002B42D14A69002A3FD00A78012101FADE
:1021380002F20369586B596B02435A6335E00B7816
:10214800143300EB830253681C6801941D690295DF
:102158004D699DF808408A6805B14A6162F3060432
:102168009DF80A208DF80840012464F3C4028DF814
:102178000A201A69029A1A61C378012B07D10C78D0
:10218800143400EB840253680A695C695A619DF84B
:10219800073043F084028DF807200978143100EBEA
:1021A800810043681A68019A1A60002005B030BDA2
:1021B8004B7882B0012B097811D10B1D00EB8300FD
:1021C80083681A68100E00F080010192CAB21AB131
:1021D80040F040008DF807009DF8061007E0143124
:1021E80000EB810043681A680192C2F3074141F08D
:1021F80020018DF80610019A00201A6002B070477D
:102208004B7882B0012B0A7804D1043200EB8200AB
:10221800836803E0143200EB820043681A68100CEC
:102228006FF3451001928DF80600C9788A1E012ABD
:1022380005D89DF8070040F010018DF80710019AA5
:1022480000201A6002B0704703699A69D869104083
:10225800000C7047143100EB81014B6802699968E2
:1022680050690840704703699869D969084080B285
:10227800704782B000230093C021012200238DF80B
:10228800031062F3C40318218DF802308DF8001092
:10229800436D1A69009A1A61C178012908D100F2C0
:1022A800CB505A6958611A681A684FF080221A6030
:1022B80002B07047014804F00FBE00BF480E00206E
:1022C80010B50D4A1378144603F01001C8B290B146
:1022D800D80704D5094840F67A0107F017FB227899
:1022E80002F00203D9B231B1044840F67A01BDE8E0
:1022F800104007F031B910BD9C0C00201B210108CB
:10230800014801F099BC00BFFD18002038B5D0F88D
:10231800E837044623F07F40C4F8E807002303F5B4
:10232800FD7204EB8205686820F07F426A6003F260
:102338000A2554F8250020F07F42E018013344F8BC
:10234800252000250F2B80F86758E8D1082284F84B
:102358008B2884F88C582046FEF7A0FF2046FFF70C
:1023680080F82046FEF7FAFF01212046FFF7C2F861
:102378002046FFF796F92046FFF764F8284638BD4F
:10238800D0F8CC3082B01868C0F3414002B0704732
:1023980008B5FFF765F9002008BDD0F8E837D0F890
:1023A800EC27D1B20A0242EA1361D0F8EC37D0F830
:1023B800EC07C3F3072241EA0241C0F3074341EAAD
:1023C800036070474369986880B27047411891F874
:1023D8007608704738B50023451885F876381B25E8
:1023E80005FB010282F8963882F8973882F8983807
:1023F80082F899380446FFF79DFA38BD80B584B055
:1024080000AF78604FF00003FB6040F20003C2F2B7
:1024180000031B681B68786898473B7B43F00803F8
:102428003B737B68DB68FA6859694FF000010A431F
:102438005A614FF00103184607F11007BD4680BDE9
:1024480080B584B000AF78604FF00003FB6040F2C5
:102458000003C2F200031B689B6878689847FB7BFF
:1024680043F02003FB737B68DB68FA6859694FF017
:1024780000010A435A614FF00103184607F110079B
:10248800BD4680BD80B586B000AF78607B68DB68EC
:10249800DB6ABB60FB7AC3F3C303DBB21A46796815
:1024A80013464FEA43039B184FEAC3029B18CB1805
:1024B80003F68803D3F80A3003F103034FEA9303C2
:1024C800FB82E8E03B894FEA8303BB82B98AFB7A47
:1024D800C3F3C303DBB21A46786813464FEA4303D3
:1024E8009B184FEAC3029B18C31803F68803D3F856
:1024F8000A30994227D9FB7AC3F3C303DBB21A46E1
:10250800796813464FEA43039B184FEAC3029B18A6
:10251800CB1803F68803D3F80A30BB824FF00003C8
:102528003B613B7C43F020033B747B68DB687A6843
:10253800D26891693A696FEA02020A4099694FF0D4
:1025480000010A439A61FB7AC3F3C303DBB21A465C
:10255800796813464FEA43039B184FEAC3029B1856
:10256800CB1803F68803D3F80A3003F103034FEAC4
:102578009303FB82FB7AC3F3C303DBB21A46796881
:1025880013464FEA43039B184FEAC3029B18CB1824
:1025980003F68803D3F80610FB7AC3F3C303DBB250
:1025A8001A46BB8A7868FEF755FEFB7AC3F3C30365
:1025B800DBB21A46FB7AC3F3C303DBB21946786869
:1025C8000B464FEA43035B184FEAC3015B18C31875
:1025D80003F68803D3F80610BB8AC918786813462F
:1025E8004FEA43039B184FEAC3029B18C31803F62C
:1025F8008803C3F80610FB7AC3F3C303DBB21A4699
:10260800FB7AC3F3C303DBB2194678680B464FEA7B
:1026180043035B184FEAC3015B18C31803F688032A
:10262800D3F80A10BB8AC91A786813464FEA4303DD
:102638009B184FEAC3029B18C31803F68803C3F814
:102648000A10FB7AC3F3C303DBB21A46FB7AC3F35F
:10265800C303DBB2194678680B464FEA43035B189D
:102668004FEAC3015B18C31803F50963D3F80610D2
:10267800BB8AC918786813464FEA43039B184FEA88
:10268800C3029B18C31803F50963C3F806107B68D7
:10269800DB68DB6ABB603B89FA8A9A4214D2FB7A10
:1026A800C3F3C303DBB21A46796813464FEA430300
:1026B8009B184FEAC3029B18CB1803F68803D3F87C
:1026C8000A30002B7FF4FEAE4FF00103184607F1E5
:1026D8001807BD4680BD00BF80B586B000AF7860E2
:1026E8007B685B691B69FB60FB7BC3F3C303DBB2DD
:1026F8001A46796813464FEA43039B184FEAC30208
:102708009B18CB1803F68803D3F80A3003F10303A8
:102718004FEA9303FB82E8E0BB894FEA8303BB825D
:10272800B98AFB7BC3F3C303DBB21A467868134646
:102738004FEA43039B184FEAC3029B18C31803F6DA
:102748008803D3F80A30994227D9FB7BC3F3C30324
:10275800DBB21A46796813464FEA43039B184FEADF
:10276800C3029B18CB1803F68803D3F80A30BB8240
:102778004FF000033B61FB7C43F00403FB747B6870
:10278800DB687A68D26891693A696FEA02020A409E
:1027980099694FF000010A439A61FB7BC3F3C303B5
:1027A800DBB21A46796813464FEA43039B184FEA8F
:1027B800C3029B18CB1803F68803D3F80A3003F139
:1027C80003034FEA9303FB82FB7BC3F3C303DBB230
:1027D8001A46796813464FEA43039B184FEAC30227
:1027E8009B18CB1803F68803D3F80610FB7BC3F3BA
:1027F800C303DBB21A46BB8A7868FEF72BFDFB7B66
:10280800C3F3C303DBB21A46FB7BC3F3C303DBB2D8
:10281800194678680B464FEA43035B184FEAC30131
:102828005B18C31803F68803D3F80610BB8AC918C7
:10283800786813464FEA43039B184FEAC3029B1874
:10284800C31803F68803C3F80610FB7BC3F3C3035E
:10285800DBB21A46FB7BC3F3C303DBB219467868C5
:102868000B464FEA43035B184FEAC3015B18C318D2
:1028780003F68803D3F80A10BB8AC91A7868134686
:102888004FEA43039B184FEAC3029B18C31803F689
:102898008803C3F80A10FB7BC3F3C303DBB21A46F1
:1028A800FB7BC3F3C303DBB2194678680B464FEAD8
:1028B80043035B184FEAC3015B18C31803F50963A8
:1028C800D3F80610BB8AC918786813464FEA430341
:1028D8009B184FEAC3029B18C31803F50963C3F892
:1028E80006107B685B691B69FB60BB89FA8A9A42A0
:1028F80014D2FB7BC3F3C303DBB21A4679681346D1
:102908004FEA43039B184FEAC3029B18CB1803F600
:102918008803D3F80A30002B7FF4FEAE4FF0010392
:10292800184607F11807BD4680BD00BF80B588B0BE
:1029380000AF78604FF00003FB614FF00003BB610C
:102948004FF00003FB604FF000037B614FF0000382
:102958003B617B68D3F8CC301B687B617B68D3F81C
:10296800CC301B683B613B7C6FF382033B743B7C40
:102978006FF341033B743B7C6FF3C3033B743B7CB5
:102988006FF345133B743B7D03F00203DBB2002B6E
:102998000FD03B7C43F002033B7440F20003C2F2C9
:1029A80000031B685B6878689847BB6943F00103BC
:1029B800BB613B7D03F00803DBB2002B62D03B7C9C
:1029C80043F008033B743B7D03F00403DBB2002BA8
:1029D80058D040F20003C2F200031B685B687868B5
:1029E8009847BB7D03F00603DBB2042B05D0BB7D03
:1029F80003F00603DBB2022B3FD17B685B691B68DF
:102A0800FB60BB7D03F00603DBB2042B1CD17B68A3
:102A18005A6953684FF0000343F4BB5343F0100363
:102A280053603B7B03F00303DBB2022B29D07B68A6
:102A38001B7A022B04D178684FF00201FEF7C4FD1F
:102A48004FF00103FB611CE07B685A6953684FF043
:102A5800000343F43B4343F0800353603B7B03F0A4
:102A68000303DBB2012B0CD078684FF00101FEF7AD
:102A7800ABFD4FF00103FB6103E04FF00103FB6185
:102A880000E000BF3B7D03F02003DBB2002B07D042
:102A98003B7C43F020033B74BB6943F00103BB61FB
:102AA800FB69002B02D07868FEF7DAFD7B68D3F863
:102AB800CC303A691A60BB69184607F12007BD4651
:102AC80080BD00BF80B59AB000AF786039607A6881
:102AD8003B6803F122034FEA8303D3189B687B66A4
:102AE8007B6E9B683B667B6EDB68FB653A6EFB6DB5
:102AF80013403B667A683B6803F122034FEA83037D
:102B0800D3189B681B68BB6597F8603003F0040313
:102B1800DBB2002B2ED04FF000037B6597F85430C2
:102B280043F0040387F854307A6D7B6E99684FF050
:102B380000010A439A607A683B6803F122034FEA6E
:102B48008303D3189B68DB683B6597F8503043F0E4
:102B5800020387F850307A683B6803F122034FEA92
:102B68008303D3189B683A6DD9684FF000010A4374
:102B7800DA6009E397F8603003F02003DBB2002B3A
:102B880010D04FF00003FB6497F84C3043F020035B
:102B980087F84C30FA6C7B6E99684FF000010A4355
:102BA8009A60F1E297F8613003F00203DBB2002B80
:102BB80034D07A683B6803F122034FEA8303D318C1
:102BC8009B68DB68BB6497F8483043F0020387F8DA
:102BD80048307A683B6803F122034FEA8303D3182D
:102BE8009B68BA6CD9684FF000010A43DA603B6809
:102BF800DBB278681946FEF749FF4FF000037B64A3
:102C080097F8453043F0020387F845307A6C7B6EBD
:102C180099684FF000010A439A60B5E297F860306E
:102C280003F00103DBB2002B47D07A683B6803F559
:102C3800FD734FEA8303D3185A6822F07F425A6023
:102C48007A683B6803F122034FEA8303D3189B6831
:102C5800DB683B6497F8403043F0020387F8403064
:102C68007A683B6803F122034FEA8303D3189B6811
:102C78003A6CD9684FF000010A43DA603B68DBB26E
:102C880078681946FEF702FF4FF00003FB6397F8D8
:102C98003C3043F0010387F83C30FA6B7B6E99684F
:102CA8004FF000010A439A607A683B68D31803F52D
:102CB80006634FF00102DA7166E297F8603003F0BC
:102CC8000803DBB2002B3CD04FF00003BB6397F83E
:102CD800383043F0080387F83830BA6B7B6E996850
:102CE8004FF000010A439A607A683B6803F12203B7
:102CF8004FEA8303D3189B68DB687B6397F834300B
:102D080043F0020387F834307A683B6803F1220302
:102D18004FEA8303D3189B687A6BD9684FF0000198
:102D28000A43DA603B68DBB278681946FEF7AEFE04
:102D38007A683B68D31803F506634FF00502DA7129
:102D480022E297F8603003F01003DBB2002B47D083
:102D58007A683B6803F5FD734FEA8303D3185A6812
:102D680022F07F425A607A683B6803F122034FEAF7
:102D78008303D3189B68DB683B6397F8303043F0D4
:102D8800020387F830307A683B6803F122034FEA80
:102D98008303D3189B683A6BD9684FF000010A4344
:102DA800DA603B68DBB278681946FEF76FFE4FF0D1
:102DB8000003FB6297F82C3043F0100387F82C309F
:102DC800FA6A7B6E99684FF000010A439A607A6844
:102DD8003B68D31803F506634FF00302DA71D3E1B9
:102DE80097F8603023F07F03DBB2002B55D07A6868
:102DF8003B6803F122034FEA8303D3189B68DB681F
:102E0800BB6297F8283043F0020387F828307A68C5
:102E18003B6803F122034FEA8303D3189B68BA6A1D
:102E2800D9684FF000010A43DA603B68DBB2786882
:102E38001946FEF72BFE7A683B6803F5FD734FEAE7
:102E48008303D318D3F8073003F1010279683B688C
:102E580003F5FD734FEA8303CB184FEA0262596802
:102E680021F07F410A435A607A683B68D31803F51A
:102E780006634FF00602DA714FF000037B6297F8A1
:102E8800243043F0800387F824307A6A7B6E99688F
:102E98004FF000010A439A6076E197F8603003F03A
:102EA8004003DBB2002B45D07A683B6803F5FD731D
:102EB8004FEA8303D3185A6822F07F425A607A682F
:102EC8003B6803F122034FEA8303D3189B68DB684E
:102ED8003B6297F8203043F0020387F820307A6885
:102EE8003B6803F122034FEA8303D3189B683A6ACD
:102EF800D9684FF000010A43DA603B68DBB27868B2
:102F08001946FEF7C3FD4FF00003FB613B7F43F01A
:102F180040033B77FA697B6E99684FF000010A43DA
:102F28009A607A683B68D31803F506634FF0040289
:102F3800DA7129E197F8613003F00403DBB2002B62
:102F480046D07A683B6803F122034FEA8303D3181B
:102F58009B68DB68BB613B7E43F002033B767A6883
:102F68003B6803F122034FEA8303D3189B68BA69CD
:102F7800D9684FF000010A43DA603B68DBB2786831
:102F88001946FEF783FD4FF000037B613B7D43F05C
:102F980010033B757A697B6E99684FF000010A430C
:102FA8009A607A683B68D31803F506634FF0080205
:102FB800DA714FF000033B617B7C43F004037B74C0
:102FC8003A697B6E99684FF000010A439A60DBE02A
:102FD80097F8603003F00203DBB2002B00F0D480D6
:102FE8007A683B6803F122034FEA8303D3189B688E
:102FF800DB68FB603B7B6FF341033B737A683B689C
:1030080003F122034FEA8303D3189B68FA68D9684F
:103018004FF000010A43DA607A683B68D31803F579
:103028000663DB79DBB2012B2ED17A683B68D318B3
:1030380003F507634FF001029A7197F85A3003F0CD
:103048000C03DBB2082B40F0918079683A6813468C
:103058004FEA43039B184FEAC3029B18CB1803F6A9
:103068009B031B7883F00103D9B278683A6813464A
:103078004FEA43039B184FEAC3029B18C31803F691
:103088009B030A461A7071E07A683B68D31803F507
:103098000663DB79DBB2032B08D17A683B68D31867
:1030A80003F507634FF002029A715FE07A683B68A4
:1030B800D31803F50663DB79DBB2042B1DD17968DD
:1030C8003A6813464FEA43039B184FEAC3029B181A
:1030D800CB1803F689031B78012B05D13B68DBB2BB
:1030E80078681946FEF7FBFC7A683B68D31803F545
:1030F80007634FF002029A7138E07A683B68D31888
:1031080003F50663DB79DBB2052B08D17A683B68E7
:10311800D31803F507634FF004029A7126E07A6822
:103128003B68D31803F50663DB79DBB2062B1DD1A8
:103138007A683B6803F5FD734FEA8303D318D3F825
:103148000730032B12D17A683B68D31803F507635D
:103158004FF003029A717A683B6803F5FD734FEAF2
:103168008303D3185A6822F07F425A604FF0000355
:10317800BB603B7A43F002033B72BA687B6E996886
:103188004FF000010A439A604FF00103184607F117
:103198006807BD4680BD00BF80B59CB000AF7860B1
:1031A80039607A683B6803F122034FEA8303D31836
:1031B8009B68FB66FB6E9B68BB66FB6EDB687B6689
:1031C800BA6E7B6E1340BB667A683B6803F12203D4
:1031D8004FEA8303D3189B681B683B664FF00003D4
:1031E8007B6697F8683003F00403DBB2002B2ED01F
:1031F8004FF00003BB6597F8583043F0040387F895
:103208005830BA6DFB6E99684FF000010A439A6016
:103218007A683B6803F122034FEA8303D3189B685B
:10322800DB687B6597F8543043F0020387F8543025
:103238007A683B6803F122034FEA8303D3189B683B
:103248007A6DD9684FF000010A43DA60C4E097F854
:10325800683003F02003DBB2002B10D04FF00003DE
:103268003B6597F8503043F0200387F850303A6DAB
:10327800FB6E99684FF000010A439A60ACE097F83A
:10328800683003F00803DBB2002B52D07A683B6841
:1032980003F122034FEA8303D3189B68DB68FB64BE
:1032A80097F84C3043F0020387F84C307A683B6853
:1032B80003F122034FEA8303D3189B68FA6CD96899
:1032C8004FF000010A43DA607A683B68D31803F5C7
:1032D80006634FF00502DA714FF00003BB6497F8FC
:1032E800483043F0100387F84830BA6CFB6E996891
:1032F8004FF000010A439A604FF000037B6497F88F
:10330800443043F0080387F844307A6CFB6E9968C0
:103318004FF000010A439A6097F868306FF304137E
:1033280087F868303B68DBB278681946FEF7AEFB71
:1033380052E097F8693003F00403DBB2002B4BD05E
:103348007A683B6803F122034FEA8303D3189B682A
:10335800DB683B6497F8403043F0020387F840305D
:103368007A683B6803F122034FEA8303D3189B680A
:103378003A6CD9684FF000010A43DA603B68DBB267
:1033880078681946FEF782FB4FF00003FB6397F855
:103398003C3043F0100387F83C30FA6BFB6E9968B9
:1033A8004FF000010A439A607A683B68D31803F526
:1033B80006634FF00802DA714FF00003BB6397F819
:1033C800393043F0040387F83930BA6BFB6E9968DB
:1033D8004FF000010A439A6097F8693003F002033E
:1033E800DBB2002B34D07A683B6803F122034FEA42
:1033F8008303D3189B68DB687B6397F8343043F00A
:10340800020387F834307A683B6803F122034FEAF5
:103418008303D3189B687A6BD9684FF000010A437D
:10342800DA603B68DBB278681946FEF72FFB4FF08D
:1034380000033B6397F8313043F0020387F83130DB
:103448003A6BFB6E99684FF000010A439A604BE2B1
:1034580097F8683003F00103DBB2002B00F0D68048
:103468007B68DB78012B28D17A683B6803F122035B
:103478004FEA8303D3189B681B69FB6579683A6830
:1034880013464FEA43039B184FEAC3029B18CB1815
:1034980003F68803D3F80A20FB6DC3F31203D11A8D
:1034A8007B683A6802F20A224FEA016153F8220067
:1034B80020F07F40014343F822107A683B68D31814
:1034C80003F506634FF00102DA717A683B6803F589
:1034D800FD734FEA8303D3185A6822F07F425A607B
:1034E8004FF00003FB6297F82C3043F0010387F894
:1034F8002C30FA6AFB6E99684FF000010A439A6013
:1035080097F8623003F00C03DBB2002B06D097F873
:10351800623003F00C03DBB2082B52D17A683B68A7
:1035280003F122034FEA8303D3189B68DB68BB626D
:1035380097F8283043F0020387F828307A683B6808
:1035480003F122034FEA8303D3189B68BA6AD96848
:103558004FF000010A43DA603B68DBB2786819462D
:10356800FEF794FA4FF000037B6297F8243043F09B
:10357800100387F824307A6AFB6E99684FF00001CF
:103588000A439A6079683A6813464FEA43039B18DE
:103598004FEAC3029B18CB1803F69A031B7883F0F3
:1035A8000103D9B278683A6813464FEA43039B1877
:1035B8004FEAC3029B18C31803F69A030A461A7007
:1035C80092E197F8623003F00C03DBB20C2B40F069
:1035D8008A8197F8633043F0200387F863307A686C
:1035E8003B6803F122034FEA8303D3189B683A6EC2
:1035F80019684FF000010A431A607A683B68D318CB
:1036080003F507634FF001029A716CE197F868308F
:1036180003F00203DBB2002B00F09C807A683B6861
:1036280003F122034FEA8303D3189B68DB683B62EC
:1036380097F820306FF3410387F820307A683B68A9
:1036480003F122034FEA8303D3189B683A6AD968C7
:103658004FF000010A43DA607A683B68D31803F533
:103668000663DB79DBB2012B08D17A683B68D31893
:1036780003F507634FF001029A715CE07A683B68D2
:10368800D31803F50663DB79DBB2052B08D17A681A
:103698003B68D31803F507634FF004029A714AE0B8
:1036A8007A683B68D31803F50663DB79DBB2062B2F
:1036B80008D07A683B68D31803F50663DB79DBB278
:1036C800082B13D17A683B6803F5FD734FEA83032F
:1036D800D3185A6822F07F425A607A683B68D31838
:1036E80003F507634FF003029A7124E097F86230FC
:1036F80003F00C03DBB20C2B1DD179683A68134632
:103708004FEA43039B184FEAC3029B18CB1803F6F2
:103718009A031B7883F00103D9B278683A68134694
:103728004FEA43039B184FEAC3029B18C31803F6DA
:103738009A030A461A704FF00003FB613B7F43F07F
:1037480002033B77FA69FB6E99684FF000010A4360
:103758009A60C9E097F8683023F07F03DBB2002B4A
:1037680051D07A683B6803F122034FEA8303D318E8
:103778009B68DB68BB613B7E43F002033B767A685B
:103788003B6803F122034FEA8303D3189B68BA69A5
:10379800D9684FF000010A43DA607A683B6803F59C
:1037A800FD734FEA8303D318D3F8073003F10102FE
:1037B80079683B6803F5FD734FEA8303CB184FEA3A
:1037C8000262596821F07F410A435A607A683B686F
:1037D800D31803F506634FF00602DA713B68DBB2D3
:1037E80078681946FEF752F94FF000037B613B7D7C
:1037F80043F080033B757A69FB6E99684FF00001CE
:103808000A439A6070E097F8683003F01003DBB25F
:10381800002B69D097F8623003F00C03DBB20C2B55
:1038280022D17A683B6803F122034FEA8303D31855
:103838009B68DB683B613B7C43F002033B747A681E
:103848003B6803F122034FEA8303D3189B683A6964
:10385800D9684FF000010A43DA603B68DBB2786848
:103868001946FEF713F927E097F8623003F00C03C6
:10387800DBB2002B06D097F8623003F00C03DBB202
:10388800082B19D197F8633043F0800387F8633029
:1038980097F863306FF3861387F863307A683B686C
:1038A80003F122034FEA8303D3189B683A6E196821
:1038B8004FF000010A431A607A683B68D31803F591
:1038C80006634FF00302DA714FF00003FB603B7BA5
:1038D80043F010033B73FA68FB6E99684FF00001E0
:1038E8000A439A6000E000BF4FF00103184607F151
:1038F8007007BD4680BD00BF80B586B000AF786058
:103908004FF000037B614FF000033B617868FDF7DF
:10391800A4FE0346FB604FF000037B612DE0BB89EA
:103928001A467B6942FA03F303F00103002B20D007
:103938007A687B6903F122034FEA8303D3189B68F3
:103948001B68BB607B7A23F07F03DBB2002B08D0B7
:1039580078687969FFF720FC03463A6913433B61AD
:1039680007E078687969FFF7ADF803463A691343C9
:103978003B617B6903F101037B617B681B781A4615
:103988007B699A42CBD83B69184607F11807BD46B0
:1039980080BD00BF80B588B000AF78604FF00003ED
:1039A800FB724FF000037B613B7D43F010033B75D6
:1039B8007B68DB687A68D26891697A696FEA020283
:1039C8000A4099694FF000010A439A617B68DB68F5
:1039D8001B6ABB613B7EC3F30303DBB2FB72FB7A5A
:1039E800DBB27A6803F122034FEA8303D3189B689A
:1039F8001B68FB60BB7EC3F34303DBB2022B40F0C2
:103A0800CF803B8BC3F30A139BB2002B40F3C980D2
:103A1800FB7ADBB21A46796813464FEA43039B18D0
:103A28004FEAC3029B18CB1803F68803D3F8063075
:103A3800002B00F0B680FB7ADBB21A467968134691
:103A48004FEA43039B184FEAC3029B18CB1803F6AF
:103A58008803D3F806203B8BC3F30A139BB278681C
:103A680011461A46FDF709FC3B7EC3F30303DBB29C
:103A78001A463B7EC3F30303DBB2194678680B464C
:103A88004FEA43035B184FEAC3015B18C31803F6F8
:103A98008803D3F806103B8BC3F30A139BB2C918EB
:103AA800786813464FEA43039B184FEAC3029B18F2
:103AB800C31803F68803C3F806103B7EC3F3030359
:103AC800DBB21A463B7EC3F30303DBB219467868C0
:103AD8000B464FEA43035B184FEAC3015B18C31850
:103AE80003F50963D3F806103B8BC3F30A139BB2A3
:103AF800C918786813464FEA43039B184FEAC30274
:103B08009B18C31803F50963C3F80610FB7ADBB2E8
:103B18001A46796813464FEA43039B184FEAC302D3
:103B28009B18CB1803F50963D3F80630FB61FB7AC1
:103B3800DBB21A467B6802F20A22F9694FEA016190
:103B480053F8220020F07F40014343F82210FB7A0B
:103B5800DBB27A6803F122034FEA8303D3189B6828
:103B68001B693B617B8AC3F3C9039BB2002B18DD39
:103B7800FB7B43F08003FB73FB7B6FF38613FB73C4
:103B8800FB7ADBB27A6803F122034FEA8303D31886
:103B98009B68FA6819684FF000010A431A6000E050
:103BA80000E000BF3B7D43F010033B757B68DB689A
:103BB8007A68D26891697A690A4399694FF0000175
:103BC8000A439A614FF00103184607F12007BD46E2
:103BD80080BD00BF80B485B000AF78607B68D3F843
:103BE80090301B68BB60FB7A43F08003FB72FB7A62
:103BF80043F04003FB727B68D3F89030BA681968C9
:103C08004FF000010A431A604FF00003FB60BB7BD2
:103C180043F02003BB737B68DB68FA6859694FF08F
:103C280000010A435A614FF00103184607F11407CF
:103C3800BD4680BC704700BF80B584B000AF7860D7
:103C48004FF00003FB604FF00003BB607868FDF79E
:103C580078FC0346002B72D07868FDF777FC0346A2
:103C6800BB60BB68002B02D14FF0000368E03B7AD1
:103C780003F00803DBB2002B06D07868FEF7BEFB22
:103C88000346FA681343FB603B7A03F01003DBB288
:103C9800002B06D07868FFF77DFE0346FA681343C9
:103CA800FB603B7A03F02003DBB2002B06D0786878
:103CB800FEF7E8FB0346FA681343FB60FB7A03F060
:103CC8000403DBB2002B06D07868FEF705FD034637
:103CD800FA681343FB60FB7A03F00203DBB2002BA4
:103CE80006D07868FFF708FE0346FA681343FB60BE
:103CF800FB7A03F00103DBB2002B06D07868FEF7ED
:103D080015FE0346FA681343FB60FB7A03F02003B1
:103D1800DBB2002B06D07868FEF792FB0346FA6800
:103D28001343FB60BB7A03F02003DBB2002B06D001
:103D38007868FFF74FFF0346FA681343FB60FB6898
:103D4800184607F11007BD4680BD00BFD0F8E83718
:103D580023F07F4141F08072C0F8E82700207047C7
:103D6800D0F8E83723F07F41C0F8E8170020704703
:103D78000020704738B5044600200D46FDF70DFABF
:103D880020462946BDE83840FEF7C0BAF8B50025F8
:103D9800402301260C468B7107460D704D708D70BF
:103DA800CE70CE76087F02F035FF217925776677C9
:103DB800384600F032FE3846617900F02EFE28467B
:103DC800F8BD70B50C4615460646FFF7DFFFC4F888
:103DD8007150AB6830462146984770BDF8B5154616
:103DE8002C4A0C461378064603F01001C8B2174651
:103DF80070B1DB0703D52848294605F087FD3A78D6
:103E080002F00203D9B219B12348294605F0A4FBF0
:103E1800681F01281ED8D4F8711030464A6C214614
:103E280090470B2020701B4C237813F0010F04D00F
:103E38001A4840F2A31105F069FD217801F0020249
:103E4800D0B2002825D0154840F2A311BDE8F840AB
:103E580005F082BB072D1CD10B250E4B25701A7857
:103E68001D4612F0010F04D00C4840F2A91105F0CC
:103E78004DFD297801F00200C3B223B1074840F292
:103E8800A91105F069FBD4F87120304693682146E2
:103E98009847F8BD9C0C002059210108732101089E
:103EA800002370B50C468B74C97E05460D2900F2B7
:103EB8002A82DFE811F041020E001E007F00880010
:103EC800E000F10040014901B501C70106022802DE
:103ED8004102627904F1130100F08CFE0223E376BB
:103EE8002846FEF76FFA3222E081002022746074BF
:103EF80028E16179FEF76AFA01281DD1E07C20F0FB
:103F08007F02B4F81900D3B248B16FF077001321DB
:103F1800207461740BB1032208E0052206E0322107
:103F2800217460740BB1092200E00722E27628466A
:103F3800FEF748FAE08105E1032817D1924D287869
:103F480000F01002D3B263B1C00702D58F4805F064
:103F5800DDFC297801F00200C2B212B18B4805F0ED
:103F6800FBFA0B230521E376A174EBE0002840F06F
:103F7800E9802846FEF726FAE189228A401A90420B
:103F880040F2E080804D2B7803F01001C8B2002881
:103F980000F09D81D90702D57D4805F0B7FC2A7845
:103FA80002F00203D9B2002900F09181784805F0A7
:103FB800D3FA8CE1B4F80B20D4F80710237900F079
:103FC8004FFE0422BDE02179FEF700FA012802D154
:103FD8000921E17631E0042815D1627822706A4C13
:103FE800237803F01000C1B2002976D0DA0702D591
:103FF800684805F08BFC227802F00203D8B200284A
:104008006BD0644867E0032817D10B23E3765E4C36
:10401800207800F01001CAB2002A00F09380C3078C
:1040280002D55D4805F072FC237803F00200C1B2A6
:10403800002900F087805848A3E02846FEF7C2F917
:10404800E289831A208A83427CD90B21E1764E4C7F
:10405800227802F01003D8B2002873D0D00702D516
:104068004E4805F053FC217801F00202D3B2002B30
:1040780068D04A4885E066791B2000FB0652012675
:1040880082F89B68B4F80B202846D4F807106379A7
:1040980000F0CAFD062254E06179FEF797F901287D
:1040A80002D10721E17670BD042818D161780C206F
:1040B8002170E076344C227802F01003D9B261B155
:1040C800D10702D5364805F021FC207800F002021D
:1040D800D3B213B1324805F03FFA022070BD02286E
:1040E80013D10520E076284C227802F00803D9B2D3
:1040F80041B3D20702D52B4805F008FC207800F020
:104108000202D3B2F3B127483BE003281AD10B22AD
:10411800E2761D4C237803F01001C8B290B1DB079A
:1041280002D5214805F0F2FB227802F00203D9B249
:1041380041B11D4825E000210A46237900F090FD91
:104148000822E276012070BD2179FEF73FF90128A7
:1041580006467CD003282BD10B20E0760A4C227827
:1041680002F01001CBB2002BECD0D00702D50F48DB
:1041780005F0CCFB207800F00202D1B20029E1D092
:104188000A4805F0E9F9DDE79C0C00209B210108AD
:10419800DC2101080D2201085022010893220108A0
:1041A800C62201080A2301085123010895230108A2
:1041B8002846FEF707F9E389218AC01A884215D9EB
:1041C8000B21E1765D4C227802F01003D8B200286A
:1041D800B8D0D10702D55A4805F098FB217801F0EC
:1041E8000202D3B2002BADD05548CAE7042EA9D19C
:1041F8006278A6742270514C237803F01000C1B283
:1042080061B1DA0702D54F4805F080FB227802F049
:104218000203D8B210B14B4805F09EF9042070BDD6
:1042280061791B2202FB010393F89B0880F00101CE
:1042380083F89B1800210A462846637900F0F4FCAD
:104248000A227EE76179FEF7C1F8012804D1637874
:104258000D202370E0766FE0022817D10921E1765E
:10426800364C237803F01000C2B2002A3FF46AAF3C
:10427800DB0702D5344805F049FB217801F0020339
:10428800D8B200283FF45EAF2F487AE703287FF4BE
:1042980059AF0B23E376294C207800F01002D1B2F5
:1042A80000293FF44FAFC00702D5284805F02EFB80
:1042B800237803F00200C2B2002A3FF443AF234838
:1042C8005FE7607B411CCAB2022A627302D80120F0
:1042D800E07670BD60780823A3742070174C2278AC
:1042E80002F01001CBB263B1D10702D5184805F02E
:1042F8000DFB207800F00202D1B211B1144805F08C
:104308002BF9032070BD0D4D2B7803F01002D0B2AD
:1043180000283FF417AFDA0702D50E4805F0F6FA81
:10432800297801F00203DAB2002A3FF40BAF0948FA
:10433800E17E05F011F905E7002070BD9C0C002016
:10434800DA2301080F240108542401089D240108D8
:10435800E324010824250108F0B5D1F8796095B067
:10436800D6F1010638BF0026032305460C468DF812
:104378000F30FEF712F850BB207840B3042829D03C
:104388008A4803785A1CD1B20529017018D9884F78
:10439800387800F00801CBB263B1C30702D585486D
:1043A80005F0B4FA3A7802F00200C1B211B18148BE
:1043B80005F0D2F82846FDF7EBFF0423237009E047
:1043C8007D48012303600268002AFCD1BAE27749DC
:1043D80000220A7020780B2800F2B482DFE810F07F
:1043E8000C00B2023C0047007F02B20291008A0032
:1043F8002F024202B2025A02002E00F0A38228467F
:10440800FDF7CBFF6D4E28B3337828461BB9FDF76F
:10441800D9FFC0B21EE0FDF7D5FF3178421A642AF1
:1044280040F2908203202070614C237803F004014D
:10443800CAB2002A00F08682D80702D5604805F083
:1044480065FA207800F00203D9B2002900F07A82D8
:104458005B48FBE0307075E22846FDF7B3FF57492B
:104468000A78801A642840F26D82032069E2D4F841
:10447800717028463A69214690470021284600F085
:10448800B3FA80216071284600F0AEFA20719EB11F
:104498002846FDF77DFFD4F8711028464B69214660
:1044A80098472846FDF76CFFC2B2D4F871006277CE
:1044B800076A21462846B847062200272270217934
:1044C800227F637F0097A0790190284600F042FA86
:1044D8006179227F637F0097A0790190284600F0D8
:1044E80039FA002E40F02E82344B07210122217028
:1044F8001A7027E231480278642A40F223820620A3
:104508001FE2A378D4F879600A2B00F21B82DFE857
:1045180013F00B0059003200A000C500CF00FD00C9
:104528001A0137015401600128462146082200F08B
:1045380043FC002840F0068294F825200120A2714F
:10454800A0709EB92846FDF723FF61790096A279ED
:10455800334601922846324600F026FA2179009621
:10456800A079324601903346284694E0134B022145
:10457800A1701870E6E111490A78642A40F2E281D4
:10458800002661790096A37932460193284633467E
:1045980000F00AFA21790096A07933460190324654
:1045A800284600F001FA012311E100BFC40B0020E6
:1045B8009C0C00205E250108440E0020C90B002039
:1045C8007E25010828462146122200F0F5FB064602
:1045D800002840F0B781D4F8711028464B6A04F1DE
:1045E8001E02214698472846214602F0F7FA031E84
:1045F80017DD0321A1702377E18C228D122400940A
:104608009B4806F0B7FF34462B199A4893F8EB15E8
:10461800013406F0AFFF122CF6D1974806F0AAFF36
:1046280090E1964C227802F01000C1B2002900F007
:104638008981D10702D5924805F068F9237803F0FB
:104648000202D0B2002800F07D818D4804F084FF7A
:1046580078E128462146227F00F079FC06460028AA
:1046680040F070810220FCF7A9FDD4F8712028469B
:10467800936A214698470420A0702179227F334607
:1046880000960196284600F08FF96179227F284626
:1046980000960196334600F087F953E128462146F3
:1046A800092200F049FD002840F04C8105238EE0E6
:1046B80028462146628E00F03FFD0646002840F05D
:1046C8004181D4F8717004F14B00FF6A21460090D3
:1046D80004F13002284604F13903B847608EE18CB2
:1046E800228D237F0090674806F044FF638E9E4228
:1046F80007DAA9195F4891F8EB1506F03BFF013678
:10470800F4E75D4806F036FF062360E094F82C20B5
:1047180082B1FF2100912846214604AB00F0C9FB75
:10472800002840F00F81D4F871202846136B2146E9
:1047380004AA05E0D4F87100534A036B21462846C1
:104748009847072343E094F82D2082B1FF21009178
:104758002846214604AB00F0ACFB002840F0F2806C
:10476800D4F871202846536B214604AA05E0D4F8F2
:104778007100454A436B214628469847082326E09E
:1047880094F82E2082B1FF2100912846214604ABDF
:1047980000F08FFB002840F0D580D4F8712028461F
:1047A800936B214604AA05E0D4F87100364A836B5E
:1047B800214628469847092309E02846214694F8C7
:1047C800352000F0D5FB002840F0BC800A23A370F8
:1047D800B8E02A4E307800F00401CAB262B1C207CC
:1047E80002D52A4805F092F8337803F00200C1B2E6
:1047F80011B1264804F0B0FED4F871202846D36BD6
:104808002146984708251D4825700278054602F07C
:104818000401CBB2002B00F09580D30703D51C48C8
:10482800217F05F073F8287800F00202D1B2002940
:1048380000F088801648217F04F08EFE82E0D4F8CC
:10484800712021465368284698478DF80F009DF837
:104858000F10002976D09DF80F2028462146FFF733
:10486800BDFA6FE028462146FFF71AFB6AE000BF51
:10487800AF250108CF2501087B2501089C0C0020E5
:10488800D7250108F72501081A2601081E26010860
:10489800412601082C4E327812F0010F04D02B4823
:1048A80040F2711105F032F8307800F00203D9B205
:1048B80021B1264840F2711104F04EFED4F871205F
:1048C8002846D36821469847D4F8710021460268E3
:1048D8002846904728462146FFF758FA32E01A4FF3
:1048E800397811F0010F04D0184840F2791105F019
:1048F8000DF83B7803F00202D0B220B1134840F221
:10490800791104F029FED4F8711028468B692146E4
:10491800984721462846FFF739FAD4F871202846E7
:10492800D36821469847D4F8710021460268284682
:1049380090472EB1284600F07CF8054B00211970ED
:104948000020207015B0F0BD9C0C002073210108D8
:10495800C90B002070B501F5A1641B2600EB4405C6
:1049680006FB01046D8984F885289DF8102005F060
:104978007F0684F88A28BDF81420C5F3C015A4F86A
:104988008B28002284F8866884F8875884F8883849
:1049980084F89A2884F89B2813B9012384F8893865
:1049A800FCF7F6FE002070BD70B5BDF8144022B1CA
:1049B8001B2505FB010686F885281B2202FB01053D
:1049C800B5F88B68A64202D00CB1A5F88B4802FB5B
:1049D800010292F888489C4202D00BB182F88838CC
:1049E800FCF7D6FE002070BD30B5002303F5A162A8
:1049F80000EB4202B2F90A50DCB2002D06DB6FEA86
:104A080041416FEA51432046538104E00133082BAA
:104A1800ECD14FF6FF70C0B230BD072907D801F5B9
:104A2800A16100EB410043895A04510C41810020E7
:104A38007047002380F81E3A80F81F3A80F8203A21
:104A480080F8213A80F8223A80F8233A80F8243A0C
:104A580080F8253A80F8263A80F8273A80F8283AEC
:104A680080F8293A1846704738B50C46C9780129A4
:104A780002D0022946D10BE02078C4F807206070E4
:104A8800022209202070A4F80B30E176E2704EE093
:104A9800E07E0D2804D101230020E370E07638BDC4
:104AA8000B2816D1234D287800F01002D1B261B13D
:104AB800C10702D5204804F029FF2B7803F0020033
:104AC800C2B212B11C4804F047FD0121E170032075
:104AD80038BD0C282BD1174D2A7802F01001CBB223
:104AE80063B1D20702D5154804F010FF287800F00A
:104AF8000202D1B211B1114804F02EFD0123E37076
:104B0800042038BD0B4A1378154603F01000C0B2D4
:104B180068B1DB0702D50A4804F0F8FE297801F0ED
:104B28000202D3B21BB10648E17804F015FD01205A
:104B380038BD00BF9C0C00206326010889260108A7
:104B4800B12601082DE9F041069D9846264B0646F8
:104B58000C4617461D602448016839B1E27E0D2ACB
:104B680004D01AB10B2A01D00C2AF4D130462146C0
:104B7800FFF796F9E378022B05D10022304621464B
:104B88001346FFF771FF18480560304621463A463C
:104B98004346FFF769FF054610B3811ECAB2022AD1
:104BA8001ED930462146FFF77BF9C5B2AB1E022B52
:104BB80016D90D4801680029E7D10C4C227802F07B
:104BC8001003D8B260B1D00702D5094804F09EFEA0
:104BD800217801F00202D3B213B1054804F0BCFCFD
:104BE8002846BDE8F08100BF440E00209C0C002040
:104BF800DE26010838B51B2303FB02030024C3F893
:104C08008E180325082183F8921883F8874883F8BB
:104C18008D5883F8934883F8944883F8954811464B
:104C2800FDF7D8FBC0B238BD70B51B2505FB0304E2
:104C3800002684F88768C4F88E18C4F8922812B938
:104C4800012284F89B2805FB030292F89B1801B106
:104C5800022182F88D181946FDF7BCFB002070BDB3
:104C680038B51B2404FB0304012584F88758022562
:104C7800C4F88E1884F88D58C4F892281946FDF7A0
:104C8800A9FB002038BD38B51B2404FB0304C4F875
:104C9800922894F89B28002584F88758C4F88E1821
:104CA80002B1022284F88D281946FDF793FB0020F3
:104CB80038BD38B51B2404FB0304C4F8922894F8C3
:104CC8009A28012584F88758C4F88E1802B1022260
:104CD80084F88D281946FDF77DFB002038BD70B596
:104CE8001B2505FB0304C4F8922894F89A2801268A
:104CF80084F88768C4F88E1802B1022205FB030500
:104D080095F89A1884F88D2881F0010285F89A2878
:104D18001946FDF75FFB002070BD70B51B2505FB2C
:104D28000304C4F8922894F89A28002684F887681F
:104D3800C4F88E1802B1022205FB030595F89A18EB
:104D480084F88D2881F0010285F89A281946FDF724
:104D580041FB002070BD0378C0F8071043700121A3
:104D680009230370A0F80B20C1760020704738B5DE
:104D78001B2404FB0304012584F887580025C4F884
:104D88008E18C4F8922884F88D581946FDF722FB2E
:104D9800284638BD38B51B2404FB03040025C4F895
:104DA8008E1884F88758C4F8922884F88D581946C4
:104DB800FDF710FB284638BD70B58023164606223D
:104DC800CB740A75002301224B758A75CB750B7657
:104DD800A1F8196000F2EB52334605460C46FFF77E
:104DE80043FE002843D195F8EB15082EA17795F8D6
:104DF800EC35E37795F8EE2595F8ED1501EB0223F0
:104E0800238495F8EF2584F8222095F8F01584F886
:104E1800231095F8F13584F8243095F8F22584F8B4
:104E2800252024D995F8F41595F8F33503EB0122DC
:104E3800E28495F8F61595F8F53503EB01222285FD
:104E480095F8F81595F8F73503EB0122628595F882
:104E5800F91584F82C1095F8FA3584F82D3095F862
:104E6800FB2584F82E2095F8FC1584F82F1070BDCA
:104E780070B562F07F02A1F8153003F47F43CA745D
:104E88000622B3F5407FBDF81060059DBDF81840B7
:104E98000A7504D109220423CA750B7601E0A1F82A
:104EA80017602A462346A1F81940BDE87040FFF76D
:104EB800DBBDF0B585B0BDF828601D4600F2EB57A4
:104EC80042F4407300220092019702960446FFF7CD
:104ED800CFFFB8B994F8EC35032B13D194F8EB1540
:104EE80003468A1E9642A8BF1646B6B204F2ED548F
:104EF800B34205D2E15C9A1C05F8011B93B2F7E7AF
:104F080000232B7005B0F0BDF0B562F07F02A1F868
:104F1800153003F47F43CA740622B3F5407FBDF809
:104F28001470069DBDF81C40089E0A7504D109221C
:104F38000423CA750B7601E0A1F817702A462346A8
:104F4800A1F819400596BDE8F040FFF7FBBD30B564
:104F580000240525A1F8152023462246CC740D759A
:104F6800CC750C764C768C76BDE83040FFF77CBD6E
:104F780030B500240925A1F8152023462246CC7413
:104F88000D75CC750C764C768C76BDE83040FFF705
:104F98006BBD00002DE9F04F8DB00A921A78099187
:104FA8000270597841709A78D97802EB01214180D2
:104FB8001A7902715979417199798171D979C171D7
:104FC800197A0172BDF85810092940F2AD80022AF9
:104FD80005D95749574A00230B801370A4E0554A56
:104FE800534992F800B0B1F80080092142888A42FA
:104FF800EFD91A789B1889185A7889B2042AF5D1FA
:1050080093F803C09E78BCF1020FEFD81C781D7985
:1050180004949F795C7993F8079093F808A0022D7F
:1050280005940697CDF81C90CDF820A0DED8F7B2ED
:105038007CB20297099F0922DDF8289002FB0472CE
:105048000E2707FB04944FF0000A0394CDF804A040
:10505800019F7CB2AC42C9DA93F800904B444944B2
:1050680093F8019089B2B9F1050FF1D14FF0070714
:1050780007FB04F9DDF808A0039C4FFA8AF7BB4543
:105088004C4413D0049F4FF0040B1770059F82F80F
:1050980001B05771069F96709771079F82F803C0F9
:1050A800D771089F15711772B34618E093F804A0DA
:1050B8005F790AEB072AD04598DC049F4FF0040873
:1050C8001770059F82F801805771069F9670977137
:1050D800079F82F803C0D771089F1571177293F85C
:1050E8000080DDF80CA00AF809805F78677093F8F3
:1050F800029084F8029093F8038084F803801F7963
:1051080093F8059007EB0928A4F804809F79A77104
:1051180093F805801C7904EB0827019C1FFA87F88F
:10512800671CFCB2019493E70DB0BDE8F08F00BF97
:10513800C60B0020C80B00208023F7B500261546B3
:1051480000F2EB57CB74062202230A754E758B7555
:10515800CE750E76A1F819503A462B460C46FFF745
:1051680083FC064648B9009504F1300004F1390182
:1051780004F14B023B46FFF70DFF3046FEBD70477A
:105188007047704738B5314B0C461A781D4612F0F7
:10519800010F03D02E48632104F0B8FB287800F0F3
:1051A8000201CBB21BB12A48632104F0D5F994F867
:1051B80022102648032903D0092918D000292CD108
:1051C800244AC4F87120007800F00403DAB2002AF7
:1051D8003AD0C00702D5204804F098FB1B4908784C
:1051E80000F00203DAB2002A2ED01B4826E01B4B3F
:1051F800C4F87130007800F00402D3B2002B23D039
:10520800C20702D5164804F081FB1049087800F05F
:105218000202D3B2C3B1124810E0037803F01002BF
:10522800D0B288B1DB0702D50E4804F06FFB0749FE
:105238000B7803F00202D0B230B10A4894F8221079
:10524800BDE8384004F088B938BD00BF9C0C002088
:10525800012701085800002033270108A00000207A
:1052680079270108B627010870B5D1F879300546C5
:105278000C46C3B1D3F87510002681F84D6021792A
:1052880031B1FCF703FC28462179FFF7C6FB2671EC
:10529800617941B12846FCF7F9FB28466179FFF7A7
:1052A800BCFB00206071002070BD000010B50B4BE6
:1052B8001A781C4612F0010F03D00948A62104F001
:1052C80025FB207800F00201CBB22BB10448A621BF
:1052D800BDE8104004F040B910BD00BF9C0C002090
:1052E8000127010810B50B4B1A781C4612F0010F64
:1052F80003D00948A12104F009FB207800F002013D
:10530800CBB22BB10448A121BDE8104004F024B968
:1053180010BD00BF9C0C00200127010810B50B4BE5
:105328001A781C4612F0010F03D009489B2104F09B
:10533800EDFA207800F00201CBB22BB104489B2192
:10534800BDE8104004F008B910BD00BF9C0C002057
:105358000127010838B514460C4A1378154603F09E
:105368000801C8B280B1DB0703D50948214604F01B
:10537800CDFA2A7802F00203D9B229B104482146AD
:10538800BDE8384004F0E8B838BD00BF9C0C0020E8
:10539800FE27010838B514460C4A1378154603F061
:1053A8000801C8B280B1DA0703D50948214604F0DC
:1053B800ADFA2A7802F00203D9B229B1044821468D
:1053C800BDE8384004F0C8B838BD00BF9C0C0020C8
:1053D8002928010838B514460C4A1378154603F0F5
:1053E8000801C8B280B1D90703D50948214604F09D
:1053F8008DFA2A7802F00203D9B229B1044821466D
:10540800BDE8384004F0A8B838BD00BF9C0C0020A7
:105418005228010810B50B4B1A781C4612F0010FE0
:1054280003D00948872104F071FA207800F00201BE
:10543800CBB22BB104488721BDE8104004F08CB8EA
:1054480010BD00BF9C0C00200127010810B50B4BB4
:105458001A781C4612F0010F03D00948822104F083
:1054680055FA207800F00201CBB22BB10448822112
:10547800BDE8104004F070B810BD00BF9C0C0020BF
:105488000127010810B50B4B1A781C4612F0010FC2
:1054980003D009485E2104F039FA207800F00201AF
:1054A800CBB22BB104485E21BDE8104004F054B8DB
:1054B80010BD00BF9C0C00200127010810B50B4B44
:1054C8001A781C4612F0010F03D00948592104F03C
:1054D8001DFA207800F00201CBB22BB10448592103
:1054E800BDE8104004F038B810BD00BF9C0C002087
:1054F8000127010810B50B4B1A781C4612F0010F52
:1055080003D00948542104F001FA207800F0020180
:10551800CBB22BB104485421BDE8104004F01CB8AC
:1055280010BD00BF9C0C00200127010810B50B4BD3
:105538001A781C4612F0010F03D009484F2104F0D5
:10554800E5F9207800F00201CBB22BB104484F21D5
:10555800BDE8104004F000B810BD00BF9C0C00204E
:105568000127010810B50B4B1A781C4612F0010FE1
:1055780003D009484A2104F0C9F9207800F0020153
:10558800CBB22BB104484A21BDE8104003F0E4BF78
:1055980010BD00BF9C0C0020012701087047704710
:1055A800704770477047704770477047704770473B
:1055B80070477047704770472DE9F04F91F834A055
:1055C80087B006460D46BAF1000F13D18F4A1378FB
:1055D800144603F01001C8B260B1D80702D58C4850
:1055E80004F094F9277807F00202D3B213B188487F
:1055F80003F0B2FFA8460027574580F2038198F8C8
:105608003E004FF0FF310328059140F0F780D5F8B0
:105618007520722404FB072494F84A30002B00F00C
:10562800ED8094F84C305FFA87FB052B00F2CA80B6
:10563800DFE803F003C8C84B0A69D4F8563030468F
:105648001B6829465A469847DFF8C091032099F805
:10565800001084F84C0001F00402D3B28BB1C907E2
:1056680004D56C48297F3A4604F050F999F80000AF
:1056780000F00201CAB222B16648297F3A4603F017
:105688006BFF654B01201870D5F8791021B1D1F85E
:105698007500002280F84D20297941B13046FCF789
:1056A800F5F930462979FFF7B8F900232B716979A4
:1056B800002900F083803046FCF7E8F96979304624
:1056C800FFF7ABF90021697178E03046FBF743FF3B
:1056D800002800F09380B4F84F2094F84A30D2B2F2
:1056E80004F10A013046FFF7FAFA01200521607239
:1056F80084F84C103046FCF765FE82B2B4F854309A
:10570800A4F854207AE03046FCF75CFEB4F8541054
:10571800B4F852308AB2801A98424FD2304694F880
:105728004A10FCF753FE012835D1627A002A65D069
:1057380094F84A301B2101FB036200206072D2F802
:10574800969894F84E005FFA89F92B7F8DE801024C
:10575800E98C2A8D314805F00DFF2346181BC1B28C
:10576800494507D2997A2E48039305F003FF039A17
:10577800531CF3E72B4805F0FDFED4F856303046AD
:10578800D3F804C094F84E300A348DE81002294644
:105798005A46E04732E0304694F84A10FCF716FEC5
:1057A80002282BD0304694F84A10FCF70FFE042844
:1057B80024D1B4F852100A31A4F85210032084F806
:1057C8004C001BE0DFF8449099F8002002F010012B
:1057D800C8B298B1D20704D51348297F3A4604F0D5
:1057E80095F899F8003003F00202D1B231B10E48B1
:1057F800297F3A4694F84C3003F0AEFE013708F1A1
:105808000908F9E6002007B0BDE8F08F9C0C0020DD
:1058180080280108A9280108D40C0020E7280108DD
:10582800CF2501087B250108092901082DE9F04148
:10583800D1F875300C4691F834800BB9BDE8F08189
:10584800002545451FDAD4F87510722606FB0516A3
:10585800BEB1D6F85630A3B11C4F3878C30703D56C
:105868001B484B2104F052F83A7802F00201CBB2FF
:105878001BB117484B2103F06FFED6F8560005F010
:10588800DBFE0135DDE711480278054612F0010F0D
:1058980003D00F48502104F039F8297801F00203A9
:1058A800D8B218B10A48502103F056FED4F8750052
:1058B80005F0C2FE002284F8752084F8762084F86A
:1058C800772084F87820BDE8F08100BF9C0C002088
:1058D800502901082DE9F04FD1F875308BB00646F4
:1058E8000C460BB1FFF7A2FF94F83490722148469A
:1058F80005F05EFEA14AC4F875001078154600F060
:105908000801CFB277B1C70703D59D48494603F0D0
:10591800FDFF2B7803F00202D0B218B1984849462F
:1059280003F01AFE002706943B464F4580F2398261
:10593800069A92F83E00032840F02E82722179439D
:10594800D4F875500820099108956D1805F06CFE7B
:105958008C4B8D4A4FF00008C5F856000360426032
:1059680005F15A0085F84C80079004F00EF9069965
:1059780091F83DA0BAF1020F28BF4FF0020AD045B6
:105988007EDA4FF00E0B0BFB07F2072000FB082313
:10599800E11801F14B0B9BF8032002F003000328E8
:1059A8006BD19BF80230180667D585F85130BBF8E3
:1059B8000410A5F84F109BF80600092802D9A5F88D
:1059C800520005E00A23002185F8523085F853106B
:1059D8009BF80200002285F84E0085F84A209BF8C3
:1059E80002103046FFF700F8014685F84A0048B330
:1059F80003200090B5F84F00227F637F0190304666
:105A0800FEF7A8FF5D4B197801F00802D0B2002814
:105A180033D0C90707D55D4839469BF80220BBF843
:105A2800043003F073FF554B197801F00202D0B22D
:105A380018B3564839469BF80220BBF8043003F0E7
:105A48008BFD1AE04D4B187800F00801CAB2A2B1DC
:105A5800C20707D59BF802204D483946059303F045
:105A680055FF059B187800F00201CAB22AB14848D0
:105A780039469BF8022003F06FFD08F101087EE724
:105A88004FF0090C0023C8221FFA87FA06F2EB5BD5
:105A98006B723046CDF808C003928DE8000C2146A1
:105AA80001224FF40453CDF814C0FFF72DFADDF8A6
:105AB80014C0804600284AD196F8EB350898099A10
:105AC800835496F8EC15697096F8EE0596F8ED355E
